{"contracts/flipcoin.sol":{"BullFlip":{"abi":[{"inputs":[],"stateMutability":"nonpayable","type":"constructor"},{"inputs":[],"name":"ReentrancyGuardReentrantCall","type":"error"},{"anonymous":false,"inputs":[{"indexed":true,"internalType":"address","name":"bettor","type":"address"},{"indexed":false,"internalType":"uint256","name":"amount","type":"uint256"},{"indexed":false,"internalType":"enum BullFlip.BetOption","name":"betOption","type":"uint8"}],"name":"BetPlaced","type":"event"},{"anonymous":false,"inputs":[{"indexed":true,"internalType":"address","name":"bettor","type":"address"},{"indexed":false,"internalType":"uint256","name":"amount","type":"uint256"},{"indexed":false,"internalType":"enum BullFlip.BetOption","name":"betOption","type":"uint8"},{"indexed":false,"internalType":"bool","name":"won","type":"bool"}],"name":"BetResolved","type":"event"},{"stateMutability":"nonpayable","type":"fallback"},{"inputs":[{"internalType":"enum BullFlip.SupportedToken","name":"token","type":"uint8"}],"name":"addSupportedToken","outputs":[],"stateMutability":"nonpayable","type":"function"},{"inputs":[{"internalType":"address","name":"","type":"address"}],"name":"balances","outputs":[{"internalType":"uint256","name":"","type":"uint256"}],"stateMutability":"view","type":"function"},{"inputs":[{"internalType":"uint256","name":"","type":"uint256"}],"name":"bets","outputs":[{"internalType":"address payable","name":"bettor","type":"address"},{"internalType":"uint256","name":"amount","type":"uint256"},{"internalType":"enum BullFlip.BetOption","name":"betOption","type":"uint8"}],"stateMutability":"view","type":"function"},{"inputs":[{"internalType":"enum BullFlip.SupportedToken","name":"token","type":"uint8"},{"internalType":"uint256","name":"amount","type":"uint256"}],"name":"fundContract","outputs":[],"stateMutability":"nonpayable","type":"function"},{"inputs":[],"name":"getRandomResult","outputs":[{"internalType":"uint256","name":"","type":"uint256"}],"stateMutability":"view","type":"function"},{"inputs":[],"name":"houseFeePercentage","outputs":[{"internalType":"uint256","name":"","type":"uint256"}],"stateMutability":"view","type":"function"},{"inputs":[],"name":"isPaused","outputs":[{"internalType":"bool","name":"","type":"bool"}],"stateMutability":"view","type":"function"},{"inputs":[{"internalType":"enum BullFlip.SupportedToken","name":"token","type":"uint8"}],"name":"isTokenSupported","outputs":[{"internalType":"bool","name":"","type":"bool"}],"stateMutability":"view","type":"function"},{"inputs":[{"internalType":"enum BullFlip.SupportedToken","name":"token","type":"uint8"},{"internalType":"uint256","name":"amount","type":"uint256"}],"name":"isValidBetAmount","outputs":[{"internalType":"bool","name":"","type":"bool"}],"stateMutability":"view","type":"function"},{"inputs":[],"name":"owner","outputs":[{"internalType":"address","name":"","type":"address"}],"stateMutability":"view","type":"function"},{"inputs":[],"name":"pauseContract","outputs":[],"stateMutability":"nonpayable","type":"function"},{"inputs":[{"internalType":"enum BullFlip.SupportedToken","name":"token","type":"uint8"},{"internalType":"uint256","name":"amount","type":"uint256"},{"internalType":"enum BullFlip.BetOption","name":"betOption","type":"uint8"}],"name":"placeBet","outputs":[],"stateMutability":"nonpayable","type":"function"},{"inputs":[{"internalType":"uint256","name":"betIndex","type":"uint256"}],"name":"resolveBet","outputs":[],"stateMutability":"nonpayable","type":"function"},{"inputs":[{"internalType":"uint256","name":"newFee","type":"uint256"}],"name":"setHouseFee","outputs":[],"stateMutability":"nonpayable","type":"function"},{"inputs":[{"internalType":"enum BullFlip.SupportedToken","name":"token","type":"uint8"},{"internalType":"uint256[]","name":"amounts","type":"uint256[]"}],"name":"setValidBetAmounts","outputs":[],"stateMutability":"nonpayable","type":"function"},{"inputs":[{"internalType":"uint256","name":"","type":"uint256"}],"name":"supportedTokens","outputs":[{"internalType":"enum BullFlip.SupportedToken","name":"","type":"uint8"}],"stateMutability":"view","type":"function"},{"inputs":[],"name":"unpauseContract","outputs":[],"stateMutability":"nonpayable","type":"function"},{"inputs":[{"internalType":"address","name":"","type":"address"},{"internalType":"uint256","name":"","type":"uint256"}],"name":"validBetAmounts","outputs":[{"internalType":"uint256","name":"","type":"uint256"}],"stateMutability":"view","type":"function"},{"inputs":[{"internalType":"enum BullFlip.SupportedToken","name":"token","type":"uint8"},{"internalType":"uint256","name":"amount","type":"uint256"}],"name":"withdrawTokens","outputs":[],"stateMutability":"nonpayable","type":"function"},{"stateMutability":"payable","type":"receive"}],"evm":{"bytecode":{"linkReferences":{},"object":"608060405260036002553480156200001657600080fd5b506001600081815581546001600160a01b031916331782556003805480840190915560208082047fc2575a0e9e593c00f959f8c92f12db2869c3395a3b0502d05e2516446f71f85b01805460ff601f90941661010090810a94909402191690556040805161012081018252948552600585830152600a9085015260196060850152606460808501526101f460a08501526103e860c085015261271060e08501526161a891840191909152731d81ec956fb906ad4c863a68cccb3831550963c1909152600490526200010b907f7c711a1530b56f8c99dab5c3df83bd5190436b0a3016eb40f7b0af8646f587ea90600962000112565b506200017f565b82805482825590600052602060002090810192821562000156579160200282015b8281111562000156578251829061ffff1690559160200191906001019062000133565b506200016492915062000168565b5090565b5b8082111562000164576000815560010162000169565b611a1c806200018f6000396000f3fe6080604052600436106101185760003560e01c80635a09f2f4116100a0578063c625562611610064578063c6255626146103a7578063ceffb08f146103d4578063e08a4ee3146103f4578063e8696f9714610414578063edcadca8146104345761016a565b80635a09f2f41461030b5780637390c7861461032b5780638da5cb5b14610340578063b187bd2614610378578063b33712c5146103925761016a565b8063438cb46a116100e7578063438cb46a14610266578063439766ce146102965780634c36c36e146102ab5780634e08bbe3146102cb57806350d0ec4f146102eb5761016a565b80631780a892146101bf57806322af00fa146101e857806327e235e31461021757806336afb788146102445761016a565b3661016a5760405162461bcd60e51b815260206004820152601c60248201527f526563656976652066756e6374696f6e206e6f7420616c6c6f7765640000000060448201526064015b60405180910390fd5b34801561017657600080fd5b5060405162461bcd60e51b815260206004820152601d60248201527f46616c6c6261636b2066756e6374696f6e206e6f7420616c6c6f7765640000006044820152606401610161565b3480156101cb57600080fd5b506101d560025481565b6040519081526020015b60405180910390f35b3480156101f457600080fd5b50610208610203366004611596565b610454565b6040516101df939291906115d9565b34801561022357600080fd5b506101d5610232366004611621565b60056020526000908152604090205481565b34801561025057600080fd5b5061026461025f366004611652565b610494565b005b34801561027257600080fd5b5061028661028136600461167c565b61061d565b60405190151581526020016101df565b3480156102a257600080fd5b506102646106a4565b3480156102b757600080fd5b506102646102c6366004611596565b6106dd565b3480156102d757600080fd5b506102866102e6366004611652565b610ab8565b3480156102f757600080fd5b50610264610306366004611652565b610baf565b34801561031757600080fd5b50610264610326366004611596565b610cbe565b34801561033757600080fd5b506101d5610d49565b34801561034c57600080fd5b50600154610360906001600160a01b031681565b6040516001600160a01b0390911681526020016101df565b34801561038457600080fd5b506007546102869060ff1681565b34801561039e57600080fd5b50610264610d7c565b3480156103b357600080fd5b506103c76103c2366004611596565b610db2565b6040516101df9190611697565b3480156103e057600080fd5b506101d56103ef3660046116b1565b610de6565b34801561040057600080fd5b5061026461040f3660046116e3565b610e17565b34801561042057600080fd5b5061026461042f3660046117b4565b610ea9565b34801561044057600080fd5b5061026461044f36600461167c565b6111f9565b6006818154811061046457600080fd5b60009182526020909120600390910201805460018201546002909201546001600160a01b03909116925060ff1683565b6001546001600160a01b031633146104be5760405162461bcd60e51b8152600401610161906117f8565b6104c78261061d565b6104e35760405162461bcd60e51b81526004016101619061183d565b600560006104f08461137b565b6001600160a01b03166001600160a01b03168152602001908152602001600020548111156105575760405162461bcd60e51b8152602060048201526014602482015273496e73756666696369656e742062616c616e636560601b6044820152606401610161565b6105608261137b565b60015460405163a9059cbb60e01b81526001600160a01b0391821660048201526024810184905291169063a9059cbb906044016020604051808303816000875af11580156105b2573d6000803e3d6000fd5b505050506040513d601f19601f820116820180604052508101906105d6919061186a565b5080600560006105e58561137b565b6001600160a01b03166001600160a01b03168152602001908152602001600020600082825461061491906118a2565b90915550505050565b6000805b60035481101561069b5782801561063a5761063a6115af565b6003828154811061064d5761064d6118b5565b60009182526020918290209181049091015460ff601f9092166101000a900416801561067b5761067b6115af565b036106895750600192915050565b80610693816118cb565b915050610621565b50600092915050565b6001546001600160a01b031633146106ce5760405162461bcd60e51b8152600401610161906117f8565b6007805460ff19166001179055565b60075460ff16156107005760405162461bcd60e51b8152600401610161906118e4565b6107086113e9565b600654811061074d5760405162461bcd60e51b8152602060048201526011602482015270092dcecc2d8d2c840c4cae840d2dcc8caf607b1b6044820152606401610161565b600060068281548110610762576107626118b5565b6000918252602090912060039091020180549091506001600160a01b031633146107c75760405162461bcd60e51b81526020600482015260166024820152752cb7ba9030b932903737ba103a3432903132ba3a37b960511b6044820152606401610161565b600060026107d3611413565b6107dd9190611926565b60018111156107ee576107ee6115af565b90506000816001811115610804576108046115af565b600284015460ff16600181111561081d5761081d6115af565b149050801561090557600083600101546002610839919061193a565b9050610845600061137b565b845460405163a9059cbb60e01b81526001600160a01b0391821660048201526024810184905291169063a9059cbb906044016020604051808303816000875af1158015610896573d6000803e3d6000fd5b505050506040513d601f19601f820116820180604052508101906108ba919061186a565b5080600560006108ca600061137b565b6001600160a01b03166001600160a01b0316815260200190815260200160002060008282546108f991906118a2565b9091555061094d915050565b826001015460056000610918600061137b565b6001600160a01b03166001600160a01b0316815260200190815260200160002060008282546109479190611951565b90915550505b8254600184015460028501546040516001600160a01b03909316927f7d29be4faf358aa0a5a7d5f699be917bbae8a0d498775d276324b4f0e10b77b69261099d92909160ff909116908690611964565b60405180910390a26006546000906109b7906001906118a2565b9050808514610a5e57600681815481106109d3576109d36118b5565b9060005260206000209060030201600686815481106109f4576109f46118b5565b60009182526020909120825460039092020180546001600160a01b0319166001600160a01b0390921691909117815560018083015481830155600280840154908301805460ff90921692909160ff1916908381811115610a5657610a566115af565b021790555050505b6006805480610a6f57610a6f611988565b60008281526020812060036000199093019283020180546001600160a01b03191681556001810191909155600201805460ff19169055905550610ab59250611426915050565b50565b6000610ac38361061d565b610adf5760405162461bcd60e51b81526004016101619061183d565b731d81ec956fb906ad4c863a68cccb3831550963c16000908152600460209081526000805160206119c78339815191528054604080518285028101850190915281815292830182828015610b5257602002820191906000526020600020905b815481526020019060010190808311610b3e575b5050505050905060005b8151811015610ba257818181518110610b7757610b776118b5565b60200260200101518403610b9057600192505050610ba9565b80610b9a816118cb565b915050610b5c565b5060009150505b92915050565b6001546001600160a01b03163314610bd95760405162461bcd60e51b8152600401610161906117f8565b610be28261061d565b610bfe5760405162461bcd60e51b81526004016101619061183d565b610c078261137b565b6040516323b872dd60e01b8152336004820152306024820152604481018390526001600160a01b0391909116906323b872dd906064016020604051808303816000875af1158015610c5c573d6000803e3d6000fd5b505050506040513d601f19601f82011682018060405250810190610c80919061186a565b508060056000610c8f8561137b565b6001600160a01b03166001600160a01b0316815260200190815260200160002060008282546106149190611951565b6001546001600160a01b03163314610ce85760405162461bcd60e51b8152600401610161906117f8565b6064811115610d445760405162461bcd60e51b815260206004820152602260248201527f4665652070657263656e74616765206d75737420626520313030206f72206c65604482015261737360f01b6064820152608401610161565b600255565b60075460009060ff1615610d6f5760405162461bcd60e51b8152600401610161906118e4565b610d77611413565b905090565b6001546001600160a01b03163314610da65760405162461bcd60e51b8152600401610161906117f8565b6007805460ff19169055565b60038181548110610dc257600080fd5b9060005260206000209060209182820401919006915054906101000a900460ff1681565b60046020528160005260406000208181548110610e0257600080fd5b90600052602060002001600091509150505481565b6001546001600160a01b03163314610e415760405162461bcd60e51b8152600401610161906117f8565b610e4a8261061d565b610e665760405162461bcd60e51b81526004016101619061183d565b731d81ec956fb906ad4c863a68cccb3831550963c1600052600460209081528151610ea4916000805160206119c783398151915291908401906114f5565b505050565b60075460ff1615610ecc5760405162461bcd60e51b8152600401610161906118e4565b610ed46113e9565b610edd8361061d565b610ef95760405162461bcd60e51b81526004016101619061183d565b610f03838361142d565b610f445760405162461bcd60e51b8152602060048201526012602482015271125b9d985b1a590818995d08185b5bdd5b9d60721b6044820152606401610161565b8160056000610f528661137b565b6001600160a01b03166001600160a01b03168152602001908152602001600020541015610fb85760405162461bcd60e51b8152602060048201526014602482015273496e73756666696369656e742062616c616e636560601b6044820152606401610161565b6000606460025484610fca919061193a565b610fd4919061199e565b90506000610fe282856118a2565b9050610fed8561137b565b6040516323b872dd60e01b8152336004820152306024820152604481018690526001600160a01b0391909116906323b872dd906064016020604051808303816000875af1158015611042573d6000803e3d6000fd5b505050506040513d601f19601f82011682018060405250810190611066919061186a565b5080600560006110758861137b565b6001600160a01b03166001600160a01b0316815260200190815260200160002060008282546110a49190611951565b9091555050604080516060810182523381526020810183905260009181018560018111156110d4576110d46115af565b9052600680546001808201835560009290925282517ff652222313e28459528d920b65115c16c04f3efc82aaedc97be59f3f377c0d3f600390920291820180546001600160a01b0319166001600160a01b0390921691909117815560208401517ff652222313e28459528d920b65115c16c04f3efc82aaedc97be59f3f377c0d4083015560408401517ff652222313e28459528d920b65115c16c04f3efc82aaedc97be59f3f377c0d41909201805494955085949193909160ff19169083818111156111a2576111a26115af565b02179055505050336001600160a01b03167f7df19a783369d9cefb06e18b396518f817b48766b74157758eda633a62f58fa783866040516111e49291906119b2565b60405180910390a2505050610ea46001600055565b6001546001600160a01b031633146112235760405162461bcd60e51b8152600401610161906117f8565b61122c8161061d565b156112795760405162461bcd60e51b815260206004820152601760248201527f546f6b656e20616c726561647920737570706f727465640000000000000000006044820152606401610161565b600380546001810182556000919091527fc2575a0e9e593c00f959f8c92f12db2869c3395a3b0502d05e2516446f71f85b602082040180548392601f166101000a60ff810219909116908380156112d2576112d26115af565b021790555060008180156112e8576112e86115af565b03610ab5576040805161012081018252600181526005602080830191909152600a9282019290925260196060820152606460808201526101f460a08201526103e860c082015261271060e08201526161a8610100820152731d81ec956fb906ad4c863a68cccb3831550963c16000526004909152611377906000805160206119c7833981519152906009611540565b5050565b60008082801561138d5761138d6115af565b036113ad5750731d81ec956fb906ad4c863a68cccb3831550963c1919050565b60405162461bcd60e51b81526020600482015260116024820152702ab739bab83837b93a32b2103a37b5b2b760791b6044820152606401610161565b60026000540361140c57604051633ee5aeb560e01b815260040160405180910390fd5b6002600055565b60006114206001436118a2565b40919050565b6001600055565b731d81ec956fb906ad4c863a68cccb3831550963c16000908152600460209081526000805160206119c7833981519152805460408051828502810185019091528181528493909291908301828280156114a557602002820191906000526020600020905b815481526020019060010190808311611491575b5050505050905060005b8151811015610ba2578181815181106114ca576114ca6118b5565b602002602001015184036114e357600192505050610ba9565b806114ed816118cb565b9150506114af565b828054828255906000526020600020908101928215611530579160200282015b82811115611530578251825591602001919060010190611515565b5061153c929150611581565b5090565b828054828255906000526020600020908101928215611530579160200282015b82811115611530578251829061ffff16905591602001919060010190611560565b5b8082111561153c5760008155600101611582565b6000602082840312156115a857600080fd5b5035919050565b634e487b7160e01b600052602160045260246000fd5b600281106115d5576115d56115af565b9052565b6001600160a01b038416815260208101839052606081016115fd60408301846115c5565b949350505050565b80356001600160a01b038116811461161c57600080fd5b919050565b60006020828403121561163357600080fd5b61163c82611605565b9392505050565b80356001811061161c57600080fd5b6000806040838503121561166557600080fd5b61166e83611643565b946020939093013593505050565b60006020828403121561168e57600080fd5b61163c82611643565b60208101600183106116ab576116ab6115af565b91905290565b600080604083850312156116c457600080fd5b61166e83611605565b634e487b7160e01b600052604160045260246000fd5b600080604083850312156116f657600080fd5b6116ff83611643565b915060208084013567ffffffffffffffff8082111561171d57600080fd5b818601915086601f83011261173157600080fd5b813581811115611743576117436116cd565b8060051b604051601f19603f83011681018181108582111715611768576117686116cd565b60405291825284820192508381018501918983111561178657600080fd5b938501935b828510156117a45784358452938501939285019261178b565b8096505050505050509250929050565b6000806000606084860312156117c957600080fd5b6117d284611643565b9250602084013591506040840135600281106117ed57600080fd5b809150509250925092565b60208082526025908201527f4f6e6c7920746865206f776e65722063616e2063616c6c20746869732066756e60408201526431ba34b7b760d91b606082015260800190565b602080825260139082015272151bdad95b881b9bdd081cdd5c1c1bdc9d1959606a1b604082015260600190565b60006020828403121561187c57600080fd5b8151801515811461163c57600080fd5b634e487b7160e01b600052601160045260246000fd5b81810381811115610ba957610ba961188c565b634e487b7160e01b600052603260045260246000fd5b6000600182016118dd576118dd61188c565b5060010190565b60208082526012908201527110dbdb9d1c9858dd081a5cc81c185d5cd95960721b604082015260600190565b634e487b7160e01b600052601260045260246000fd5b60008261193557611935611910565b500690565b8082028115828204841417610ba957610ba961188c565b80820180821115610ba957610ba961188c565b8381526060810161197860208301856115c5565b8215156040830152949350505050565b634e487b7160e01b600052603160045260246000fd5b6000826119ad576119ad611910565b500490565b8281526040810161163c60208301846115c556fe7c711a1530b56f8c99dab5c3df83bd5190436b0a3016eb40f7b0af8646f587eaa2646970667358221220cc807617c7a0fb7c5bd8e4da48b25368918a5e1f06a625b47b4291b4885d33e464736f6c63430008110033","opcodes":"PUSH1 0x80 PUSH1 0x40 MSTORE PUSH1 0x3 PUSH1 0x2 SSTORE CALLVALUE DUP1 ISZERO PUSH3 0x16 JUMPI PUSH1 0x0 DUP1 REVERT JUMPDEST POP PUSH1 0x1 PUSH1 0x0 DUP2 DUP2 SSTORE DUP2 SLOAD PUSH1 0x1 PUSH1 0x1 PUSH1 0xA0 SHL SUB NOT AND CALLER OR DUP3 SSTORE PUSH1 0x3 DUP1 SLOAD DUP1 DUP5 ADD SWAP1 SWAP2 SSTORE PUSH1 0x20 DUP1 DUP3 DIV PUSH32 0xC2575A0E9E593C00F959F8C92F12DB2869C3395A3B0502D05E2516446F71F85B ADD DUP1 SLOAD PUSH1 0xFF PUSH1 0x1F SWAP1 SWAP5 AND PUSH2 0x100 SWAP1 DUP2 EXP SWAP5 SWAP1 SWAP5 MUL NOT AND SWAP1 SSTORE PUSH1 0x40 DUP1 MLOAD PUSH2 0x120 DUP2 ADD DUP3 MSTORE SWAP5 DUP6 MSTORE PUSH1 0x5 DUP6 DUP4 ADD MSTORE PUSH1 0xA SWAP1 DUP6 ADD MSTORE PUSH1 0x19 PUSH1 0x60 DUP6 ADD MSTORE PUSH1 0x64 PUSH1 0x80 DUP6 ADD MSTORE PUSH2 0x1F4 PUSH1 0xA0 DUP6 ADD MSTORE PUSH2 0x3E8 PUSH1 0xC0 DUP6 ADD MSTORE PUSH2 0x2710 PUSH1 0xE0 DUP6 ADD MSTORE PUSH2 0x61A8 SWAP2 DUP5 ADD SWAP2 SWAP1 SWAP2 MSTORE PUSH20 0x1D81EC956FB906AD4C863A68CCCB3831550963C1 SWAP1 SWAP2 MSTORE PUSH1 0x4 SWAP1 MSTORE PUSH3 0x10B SWAP1 PUSH32 0x7C711A1530B56F8C99DAB5C3DF83BD5190436B0A3016EB40F7B0AF8646F587EA SWAP1 PUSH1 0x9 PUSH3 0x112 JUMP JUMPDEST POP PUSH3 0x17F JUMP JUMPDEST DUP3 DUP1 SLOAD DUP3 DUP3 SSTORE SWAP1 PUSH1 0x0 MSTORE PUSH1 0x20 PUSH1 0x0 KECCAK256 SWAP1 DUP2 ADD SWAP3 DUP3 ISZERO PUSH3 0x156 JUMPI SWAP2 PUSH1 0x20 MUL DUP3 ADD JUMPDEST DUP3 DUP2 GT ISZERO PUSH3 0x156 JUMPI DUP3 MLOAD DUP3 SWAP1 PUSH2 0xFFFF AND SWAP1 SSTORE SWAP2 PUSH1 0x20 ADD SWAP2 SWAP1 PUSH1 0x1 ADD SWAP1 PUSH3 0x133 JUMP JUMPDEST POP PUSH3 0x164 SWAP3 SWAP2 POP PUSH3 0x168 JUMP JUMPDEST POP SWAP1 JUMP JUMPDEST JUMPDEST DUP1 DUP3 GT ISZERO PUSH3 0x164 JUMPI PUSH1 0x0 DUP2 SSTORE PUSH1 0x1 ADD PUSH3 0x169 JUMP JUMPDEST PUSH2 0x1A1C DUP1 PUSH3 0x18F PUSH1 0x0 CODECOPY PUSH1 0x0 RETURN INVALID PUSH1 0x80 PUSH1 0x40 MSTORE PUSH1 0x4 CALLDATASIZE LT PUSH2 0x118 JUMPI PUSH1 0x0 CALLDATALOAD PUSH1 0xE0 SHR DUP1 PUSH4 0x5A09F2F4 GT PUSH2 0xA0 JUMPI DUP1 PUSH4 0xC6255626 GT PUSH2 0x64 JUMPI DUP1 PUSH4 0xC6255626 EQ PUSH2 0x3A7 JUMPI DUP1 PUSH4 0xCEFFB08F EQ PUSH2 0x3D4 JUMPI DUP1 PUSH4 0xE08A4EE3 EQ PUSH2 0x3F4 JUMPI DUP1 PUSH4 0xE8696F97 EQ PUSH2 0x414 JUMPI DUP1 PUSH4 0xEDCADCA8 EQ PUSH2 0x434 JUMPI PUSH2 0x16A JUMP JUMPDEST DUP1 PUSH4 0x5A09F2F4 EQ PUSH2 0x30B JUMPI DUP1 PUSH4 0x7390C786 EQ PUSH2 0x32B JUMPI DUP1 PUSH4 0x8DA5CB5B EQ PUSH2 0x340 JUMPI DUP1 PUSH4 0xB187BD26 EQ PUSH2 0x378 JUMPI DUP1 PUSH4 0xB33712C5 EQ PUSH2 0x392 JUMPI PUSH2 0x16A JUMP JUMPDEST DUP1 PUSH4 0x438CB46A GT PUSH2 0xE7 JUMPI DUP1 PUSH4 0x438CB46A EQ PUSH2 0x266 JUMPI DUP1 PUSH4 0x439766CE EQ PUSH2 0x296 JUMPI DUP1 PUSH4 0x4C36C36E EQ PUSH2 0x2AB JUMPI DUP1 PUSH4 0x4E08BBE3 EQ PUSH2 0x2CB JUMPI DUP1 PUSH4 0x50D0EC4F EQ PUSH2 0x2EB JUMPI PUSH2 0x16A JUMP JUMPDEST DUP1 PUSH4 0x1780A892 EQ PUSH2 0x1BF JUMPI DUP1 PUSH4 0x22AF00FA EQ PUSH2 0x1E8 JUMPI DUP1 PUSH4 0x27E235E3 EQ PUSH2 0x217 JUMPI DUP1 PUSH4 0x36AFB788 EQ PUSH2 0x244 JUMPI PUSH2 0x16A JUMP JUMPDEST CALLDATASIZE PUSH2 0x16A JUMPI PUSH1 0x40 MLOAD PUSH3 0x461BCD PUSH1 0xE5 SHL DUP2 MSTORE PUSH1 0x20 PUSH1 0x4 DUP3 ADD MSTORE PUSH1 0x1C PUSH1 0x24 DUP3 ADD MSTORE PUSH32 0x526563656976652066756E6374696F6E206E6F7420616C6C6F77656400000000 PUSH1 0x44 DUP3 ADD MSTORE PUSH1 0x64 ADD JUMPDEST PUSH1 0x40 MLOAD DUP1 SWAP2 SUB SWAP1 REVERT JUMPDEST CALLVALUE DUP1 ISZERO PUSH2 0x176 JUMPI PUSH1 0x0 DUP1 REVERT JUMPDEST POP PUSH1 0x40 MLOAD PUSH3 0x461BCD PUSH1 0xE5 SHL DUP2 MSTORE PUSH1 0x20 PUSH1 0x4 DUP3 ADD MSTORE PUSH1 0x1D PUSH1 0x24 DUP3 ADD MSTORE PUSH32 0x46616C6C6261636B2066756E6374696F6E206E6F7420616C6C6F776564000000 PUSH1 0x44 DUP3 ADD MSTORE PUSH1 0x64 ADD PUSH2 0x161 JUMP JUMPDEST CALLVALUE DUP1 ISZERO PUSH2 0x1CB JUMPI PUSH1 0x0 DUP1 REVERT JUMPDEST POP PUSH2 0x1D5 PUSH1 0x2 SLOAD DUP2 JUMP JUMPDEST PUSH1 0x40 MLOAD SWAP1 DUP2 MSTORE PUSH1 0x20 ADD JUMPDEST PUSH1 0x40 MLOAD DUP1 SWAP2 SUB SWAP1 RETURN JUMPDEST CALLVALUE DUP1 ISZERO PUSH2 0x1F4 JUMPI PUSH1 0x0 DUP1 REVERT JUMPDEST POP PUSH2 0x208 PUSH2 0x203 CALLDATASIZE PUSH1 0x4 PUSH2 0x1596 JUMP JUMPDEST PUSH2 0x454 JUMP JUMPDEST PUSH1 0x40 MLOAD PUSH2 0x1DF SWAP4 SWAP3 SWAP2 SWAP1 PUSH2 0x15D9 JUMP JUMPDEST CALLVALUE DUP1 ISZERO PUSH2 0x223 JUMPI PUSH1 0x0 DUP1 REVERT JUMPDEST POP PUSH2 0x1D5 PUSH2 0x232 CALLDATASIZE PUSH1 0x4 PUSH2 0x1621 JUMP JUMPDEST PUSH1 0x5 PUSH1 0x20 MSTORE PUSH1 0x0 SWAP1 DUP2 MSTORE PUSH1 0x40 SWAP1 KECCAK256 SLOAD DUP2 JUMP JUMPDEST CALLVALUE DUP1 ISZERO PUSH2 0x250 JUMPI PUSH1 0x0 DUP1 REVERT JUMPDEST POP PUSH2 0x264 PUSH2 0x25F CALLDATASIZE PUSH1 0x4 PUSH2 0x1652 JUMP JUMPDEST PUSH2 0x494 JUMP JUMPDEST STOP JUMPDEST CALLVALUE DUP1 ISZERO PUSH2 0x272 JUMPI PUSH1 0x0 DUP1 REVERT JUMPDEST POP PUSH2 0x286 PUSH2 0x281 CALLDATASIZE PUSH1 0x4 PUSH2 0x167C JUMP JUMPDEST PUSH2 0x61D JUMP JUMPDEST PUSH1 0x40 MLOAD SWAP1 ISZERO ISZERO DUP2 MSTORE PUSH1 0x20 ADD PUSH2 0x1DF JUMP JUMPDEST CALLVALUE DUP1 ISZERO PUSH2 0x2A2 JUMPI PUSH1 0x0 DUP1 REVERT JUMPDEST POP PUSH2 0x264 PUSH2 0x6A4 JUMP JUMPDEST CALLVALUE DUP1 ISZERO PUSH2 0x2B7 JUMPI PUSH1 0x0 DUP1 REVERT JUMPDEST POP PUSH2 0x264 PUSH2 0x2C6 CALLDATASIZE PUSH1 0x4 PUSH2 0x1596 JUMP JUMPDEST PUSH2 0x6DD JUMP JUMPDEST CALLVALUE DUP1 ISZERO PUSH2 0x2D7 JUMPI PUSH1 0x0 DUP1 REVERT JUMPDEST POP PUSH2 0x286 PUSH2 0x2E6 CALLDATASIZE PUSH1 0x4 PUSH2 0x1652 JUMP JUMPDEST PUSH2 0xAB8 JUMP JUMPDEST CALLVALUE DUP1 ISZERO PUSH2 0x2F7 JUMPI PUSH1 0x0 DUP1 REVERT JUMPDEST POP PUSH2 0x264 PUSH2 0x306 CALLDATASIZE PUSH1 0x4 PUSH2 0x1652 JUMP JUMPDEST PUSH2 0xBAF JUMP JUMPDEST CALLVALUE DUP1 ISZERO PUSH2 0x317 JUMPI PUSH1 0x0 DUP1 REVERT JUMPDEST POP PUSH2 0x264 PUSH2 0x326 CALLDATASIZE PUSH1 0x4 PUSH2 0x1596 JUMP JUMPDEST PUSH2 0xCBE JUMP JUMPDEST CALLVALUE DUP1 ISZERO PUSH2 0x337 JUMPI PUSH1 0x0 DUP1 REVERT JUMPDEST POP PUSH2 0x1D5 PUSH2 0xD49 JUMP JUMPDEST CALLVALUE DUP1 ISZERO PUSH2 0x34C JUMPI PUSH1 0x0 DUP1 REVERT JUMPDEST POP PUSH1 0x1 SLOAD PUSH2 0x360 SWAP1 PUSH1 0x1 PUSH1 0x1 PUSH1 0xA0 SHL SUB AND DUP2 JUMP JUMPDEST PUSH1 0x40 MLOAD PUSH1 0x1 PUSH1 0x1 PUSH1 0xA0 SHL SUB SWAP1 SWAP2 AND DUP2 MSTORE PUSH1 0x20 ADD PUSH2 0x1DF JUMP JUMPDEST CALLVALUE DUP1 ISZERO PUSH2 0x384 JUMPI PUSH1 0x0 DUP1 REVERT JUMPDEST POP PUSH1 0x7 SLOAD PUSH2 0x286 SWAP1 PUSH1 0xFF AND DUP2 JUMP JUMPDEST CALLVALUE DUP1 ISZERO PUSH2 0x39E JUMPI PUSH1 0x0 DUP1 REVERT JUMPDEST POP PUSH2 0x264 PUSH2 0xD7C JUMP JUMPDEST CALLVALUE DUP1 ISZERO PUSH2 0x3B3 JUMPI PUSH1 0x0 DUP1 REVERT JUMPDEST POP PUSH2 0x3C7 PUSH2 0x3C2 CALLDATASIZE PUSH1 0x4 PUSH2 0x1596 JUMP JUMPDEST PUSH2 0xDB2 JUMP JUMPDEST PUSH1 0x40 MLOAD PUSH2 0x1DF SWAP2 SWAP1 PUSH2 0x1697 JUMP JUMPDEST CALLVALUE DUP1 ISZERO PUSH2 0x3E0 JUMPI PUSH1 0x0 DUP1 REVERT JUMPDEST POP PUSH2 0x1D5 PUSH2 0x3EF CALLDATASIZE PUSH1 0x4 PUSH2 0x16B1 JUMP JUMPDEST PUSH2 0xDE6 JUMP JUMPDEST CALLVALUE DUP1 ISZERO PUSH2 0x400 JUMPI PUSH1 0x0 DUP1 REVERT JUMPDEST POP PUSH2 0x264 PUSH2 0x40F CALLDATASIZE PUSH1 0x4 PUSH2 0x16E3 JUMP JUMPDEST PUSH2 0xE17 JUMP JUMPDEST CALLVALUE DUP1 ISZERO PUSH2 0x420 JUMPI PUSH1 0x0 DUP1 REVERT JUMPDEST POP PUSH2 0x264 PUSH2 0x42F CALLDATASIZE PUSH1 0x4 PUSH2 0x17B4 JUMP JUMPDEST PUSH2 0xEA9 JUMP JUMPDEST CALLVALUE DUP1 ISZERO PUSH2 0x440 JUMPI PUSH1 0x0 DUP1 REVERT JUMPDEST POP PUSH2 0x264 PUSH2 0x44F CALLDATASIZE PUSH1 0x4 PUSH2 0x167C JUMP JUMPDEST PUSH2 0x11F9 JUMP JUMPDEST PUSH1 0x6 DUP2 DUP2 SLOAD DUP2 LT PUSH2 0x464 JUMPI PUSH1 0x0 DUP1 REVERT JUMPDEST PUSH1 0x0 SWAP2 DUP3 MSTORE PUSH1 0x20 SWAP1 SWAP2 KECCAK256 PUSH1 0x3 SWAP1 SWAP2 MUL ADD DUP1 SLOAD PUSH1 0x1 DUP3 ADD SLOAD PUSH1 0x2 SWAP1 SWAP3 ADD SLOAD PUSH1 0x1 PUSH1 0x1 PUSH1 0xA0 SHL SUB SWAP1 SWAP2 AND SWAP3 POP PUSH1 0xFF AND DUP4 JUMP JUMPDEST PUSH1 0x1 SLOAD PUSH1 0x1 PUSH1 0x1 PUSH1 0xA0 SHL SUB AND CALLER EQ PUSH2 0x4BE JUMPI PUSH1 0x40 MLOAD PUSH3 0x461BCD PUSH1 0xE5 SHL DUP2 MSTORE PUSH1 0x4 ADD PUSH2 0x161 SWAP1 PUSH2 0x17F8 JUMP JUMPDEST PUSH2 0x4C7 DUP3 PUSH2 0x61D JUMP JUMPDEST PUSH2 0x4E3 JUMPI PUSH1 0x40 MLOAD PUSH3 0x461BCD PUSH1 0xE5 SHL DUP2 MSTORE PUSH1 0x4 ADD PUSH2 0x161 SWAP1 PUSH2 0x183D JUMP JUMPDEST PUSH1 0x5 PUSH1 0x0 PUSH2 0x4F0 DUP5 PUSH2 0x137B JUMP JUMPDEST PUSH1 0x1 PUSH1 0x1 PUSH1 0xA0 SHL SUB AND PUSH1 0x1 PUSH1 0x1 PUSH1 0xA0 SHL SUB AND DUP2 MSTORE PUSH1 0x20 ADD SWAP1 DUP2 MSTORE PUSH1 0x20 ADD PUSH1 0x0 KECCAK256 SLOAD DUP2 GT ISZERO PUSH2 0x557 JUMPI PUSH1 0x40 MLOAD PUSH3 0x461BCD PUSH1 0xE5 SHL DUP2 MSTORE PUSH1 0x20 PUSH1 0x4 DUP3 ADD MSTORE PUSH1 0x14 PUSH1 0x24 DUP3 ADD MSTORE PUSH20 0x496E73756666696369656E742062616C616E6365 PUSH1 0x60 SHL PUSH1 0x44 DUP3 ADD MSTORE PUSH1 0x64 ADD PUSH2 0x161 JUMP JUMPDEST PUSH2 0x560 DUP3 PUSH2 0x137B JUMP JUMPDEST PUSH1 0x1 SLOAD PUSH1 0x40 MLOAD PUSH4 0xA9059CBB PUSH1 0xE0 SHL DUP2 MSTORE PUSH1 0x1 PUSH1 0x1 PUSH1 0xA0 SHL SUB SWAP2 DUP3 AND PUSH1 0x4 DUP3 ADD MSTORE PUSH1 0x24 DUP2 ADD DUP5 SWAP1 MSTORE SWAP2 AND SWAP1 PUSH4 0xA9059CBB SWAP1 PUSH1 0x44 ADD PUSH1 0x20 PUSH1 0x40 MLOAD DUP1 DUP4 SUB DUP2 PUSH1 0x0 DUP8 GAS CALL ISZERO DUP1 ISZERO PUSH2 0x5B2 JUMPI RETURNDATASIZE PUSH1 0x0 DUP1 RETURNDATACOPY RETURNDATASIZE PUSH1 0x0 REVERT JUMPDEST POP POP POP POP PUSH1 0x40 MLOAD RETURNDATASIZE PUSH1 0x1F NOT PUSH1 0x1F DUP3 ADD AND DUP3 ADD DUP1 PUSH1 0x40 MSTORE POP DUP2 ADD SWAP1 PUSH2 0x5D6 SWAP2 SWAP1 PUSH2 0x186A JUMP JUMPDEST POP DUP1 PUSH1 0x5 PUSH1 0x0 PUSH2 0x5E5 DUP6 PUSH2 0x137B JUMP JUMPDEST PUSH1 0x1 PUSH1 0x1 PUSH1 0xA0 SHL SUB AND PUSH1 0x1 PUSH1 0x1 PUSH1 0xA0 SHL SUB AND DUP2 MSTORE PUSH1 0x20 ADD SWAP1 DUP2 MSTORE PUSH1 0x20 ADD PUSH1 0x0 KECCAK256 PUSH1 0x0 DUP3 DUP3 SLOAD PUSH2 0x614 SWAP2 SWAP1 PUSH2 0x18A2 JUMP JUMPDEST SWAP1 SWAP2 SSTORE POP POP POP POP JUMP JUMPDEST PUSH1 0x0 DUP1 JUMPDEST PUSH1 0x3 SLOAD DUP2 LT ISZERO PUSH2 0x69B JUMPI DUP3 DUP1 ISZERO PUSH2 0x63A JUMPI PUSH2 0x63A PUSH2 0x15AF JUMP JUMPDEST PUSH1 0x3 DUP3 DUP2 SLOAD DUP2 LT PUSH2 0x64D JUMPI PUSH2 0x64D PUSH2 0x18B5 JUMP JUMPDEST PUSH1 0x0 SWAP2 DUP3 MSTORE PUSH1 0x20 SWAP2 DUP3 SWAP1 KECCAK256 SWAP2 DUP2 DIV SWAP1 SWAP2 ADD SLOAD PUSH1 0xFF PUSH1 0x1F SWAP1 SWAP3 AND PUSH2 0x100 EXP SWAP1 DIV AND DUP1 ISZERO PUSH2 0x67B JUMPI PUSH2 0x67B PUSH2 0x15AF JUMP JUMPDEST SUB PUSH2 0x689 JUMPI POP PUSH1 0x1 SWAP3 SWAP2 POP POP JUMP JUMPDEST DUP1 PUSH2 0x693 DUP2 PUSH2 0x18CB JUMP JUMPDEST SWAP2 POP POP PUSH2 0x621 JUMP JUMPDEST POP PUSH1 0x0 SWAP3 SWAP2 POP POP JUMP JUMPDEST PUSH1 0x1 SLOAD PUSH1 0x1 PUSH1 0x1 PUSH1 0xA0 SHL SUB AND CALLER EQ PUSH2 0x6CE JUMPI PUSH1 0x40 MLOAD PUSH3 0x461BCD PUSH1 0xE5 SHL DUP2 MSTORE PUSH1 0x4 ADD PUSH2 0x161 SWAP1 PUSH2 0x17F8 JUMP JUMPDEST PUSH1 0x7 DUP1 SLOAD PUSH1 0xFF NOT AND PUSH1 0x1 OR SWAP1 SSTORE JUMP JUMPDEST PUSH1 0x7 SLOAD PUSH1 0xFF AND ISZERO PUSH2 0x700 JUMPI PUSH1 0x40 MLOAD PUSH3 0x461BCD PUSH1 0xE5 SHL DUP2 MSTORE PUSH1 0x4 ADD PUSH2 0x161 SWAP1 PUSH2 0x18E4 JUMP JUMPDEST PUSH2 0x708 PUSH2 0x13E9 JUMP JUMPDEST PUSH1 0x6 SLOAD DUP2 LT PUSH2 0x74D JUMPI PUSH1 0x40 MLOAD PUSH3 0x461BCD PUSH1 0xE5 SHL DUP2 MSTORE PUSH1 0x20 PUSH1 0x4 DUP3 ADD MSTORE PUSH1 0x11 PUSH1 0x24 DUP3 ADD MSTORE PUSH17 0x92DCECC2D8D2C840C4CAE840D2DCC8CAF PUSH1 0x7B SHL PUSH1 0x44 DUP3 ADD MSTORE PUSH1 0x64 ADD PUSH2 0x161 JUMP JUMPDEST PUSH1 0x0 PUSH1 0x6 DUP3 DUP2 SLOAD DUP2 LT PUSH2 0x762 JUMPI PUSH2 0x762 PUSH2 0x18B5 JUMP JUMPDEST PUSH1 0x0 SWAP2 DUP3 MSTORE PUSH1 0x20 SWAP1 SWAP2 KECCAK256 PUSH1 0x3 SWAP1 SWAP2 MUL ADD DUP1 SLOAD SWAP1 SWAP2 POP PUSH1 0x1 PUSH1 0x1 PUSH1 0xA0 SHL SUB AND CALLER EQ PUSH2 0x7C7 JUMPI PUSH1 0x40 MLOAD PUSH3 0x461BCD PUSH1 0xE5 SHL DUP2 MSTORE PUSH1 0x20 PUSH1 0x4 DUP3 ADD MSTORE PUSH1 0x16 PUSH1 0x24 DUP3 ADD MSTORE PUSH22 0x2CB7BA9030B932903737BA103A3432903132BA3A37B9 PUSH1 0x51 SHL PUSH1 0x44 DUP3 ADD MSTORE PUSH1 0x64 ADD PUSH2 0x161 JUMP JUMPDEST PUSH1 0x0 PUSH1 0x2 PUSH2 0x7D3 PUSH2 0x1413 JUMP JUMPDEST PUSH2 0x7DD SWAP2 SWAP1 PUSH2 0x1926 JUMP JUMPDEST PUSH1 0x1 DUP2 GT ISZERO PUSH2 0x7EE JUMPI PUSH2 0x7EE PUSH2 0x15AF JUMP JUMPDEST SWAP1 POP PUSH1 0x0 DUP2 PUSH1 0x1 DUP2 GT ISZERO PUSH2 0x804 JUMPI PUSH2 0x804 PUSH2 0x15AF JUMP JUMPDEST PUSH1 0x2 DUP5 ADD SLOAD PUSH1 0xFF AND PUSH1 0x1 DUP2 GT ISZERO PUSH2 0x81D JUMPI PUSH2 0x81D PUSH2 0x15AF JUMP JUMPDEST EQ SWAP1 POP DUP1 ISZERO PUSH2 0x905 JUMPI PUSH1 0x0 DUP4 PUSH1 0x1 ADD SLOAD PUSH1 0x2 PUSH2 0x839 SWAP2 SWAP1 PUSH2 0x193A JUMP JUMPDEST SWAP1 POP PUSH2 0x845 PUSH1 0x0 PUSH2 0x137B JUMP JUMPDEST DUP5 SLOAD PUSH1 0x40 MLOAD PUSH4 0xA9059CBB PUSH1 0xE0 SHL DUP2 MSTORE PUSH1 0x1 PUSH1 0x1 PUSH1 0xA0 SHL SUB SWAP2 DUP3 AND PUSH1 0x4 DUP3 ADD MSTORE PUSH1 0x24 DUP2 ADD DUP5 SWAP1 MSTORE SWAP2 AND SWAP1 PUSH4 0xA9059CBB SWAP1 PUSH1 0x44 ADD PUSH1 0x20 PUSH1 0x40 MLOAD DUP1 DUP4 SUB DUP2 PUSH1 0x0 DUP8 GAS CALL ISZERO DUP1 ISZERO PUSH2 0x896 JUMPI RETURNDATASIZE PUSH1 0x0 DUP1 RETURNDATACOPY RETURNDATASIZE PUSH1 0x0 REVERT JUMPDEST POP POP POP POP PUSH1 0x40 MLOAD RETURNDATASIZE PUSH1 0x1F NOT PUSH1 0x1F DUP3 ADD AND DUP3 ADD DUP1 PUSH1 0x40 MSTORE POP DUP2 ADD SWAP1 PUSH2 0x8BA SWAP2 SWAP1 PUSH2 0x186A JUMP JUMPDEST POP DUP1 PUSH1 0x5 PUSH1 0x0 PUSH2 0x8CA PUSH1 0x0 PUSH2 0x137B JUMP JUMPDEST PUSH1 0x1 PUSH1 0x1 PUSH1 0xA0 SHL SUB AND PUSH1 0x1 PUSH1 0x1 PUSH1 0xA0 SHL SUB AND DUP2 MSTORE PUSH1 0x20 ADD SWAP1 DUP2 MSTORE PUSH1 0x20 ADD PUSH1 0x0 KECCAK256 PUSH1 0x0 DUP3 DUP3 SLOAD PUSH2 0x8F9 SWAP2 SWAP1 PUSH2 0x18A2 JUMP JUMPDEST SWAP1 SWAP2 SSTORE POP PUSH2 0x94D SWAP2 POP POP JUMP JUMPDEST DUP3 PUSH1 0x1 ADD SLOAD PUSH1 0x5 PUSH1 0x0 PUSH2 0x918 PUSH1 0x0 PUSH2 0x137B JUMP JUMPDEST PUSH1 0x1 PUSH1 0x1 PUSH1 0xA0 SHL SUB AND PUSH1 0x1 PUSH1 0x1 PUSH1 0xA0 SHL SUB AND DUP2 MSTORE PUSH1 0x20 ADD SWAP1 DUP2 MSTORE PUSH1 0x20 ADD PUSH1 0x0 KECCAK256 PUSH1 0x0 DUP3 DUP3 SLOAD PUSH2 0x947 SWAP2 SWAP1 PUSH2 0x1951 JUMP JUMPDEST SWAP1 SWAP2 SSTORE POP POP JUMPDEST DUP3 SLOAD PUSH1 0x1 DUP5 ADD SLOAD PUSH1 0x2 DUP6 ADD SLOAD PUSH1 0x40 MLOAD PUSH1 0x1 PUSH1 0x1 PUSH1 0xA0 SHL SUB SWAP1 SWAP4 AND SWAP3 PUSH32 0x7D29BE4FAF358AA0A5A7D5F699BE917BBAE8A0D498775D276324B4F0E10B77B6 SWAP3 PUSH2 0x99D SWAP3 SWAP1 SWAP2 PUSH1 0xFF SWAP1 SWAP2 AND SWAP1 DUP7 SWAP1 PUSH2 0x1964 JUMP JUMPDEST PUSH1 0x40 MLOAD DUP1 SWAP2 SUB SWAP1 LOG2 PUSH1 0x6 SLOAD PUSH1 0x0 SWAP1 PUSH2 0x9B7 SWAP1 PUSH1 0x1 SWAP1 PUSH2 0x18A2 JUMP JUMPDEST SWAP1 POP DUP1 DUP6 EQ PUSH2 0xA5E JUMPI PUSH1 0x6 DUP2 DUP2 SLOAD DUP2 LT PUSH2 0x9D3 JUMPI PUSH2 0x9D3 PUSH2 0x18B5 JUMP JUMPDEST SWAP1 PUSH1 0x0 MSTORE PUSH1 0x20 PUSH1 0x0 KECCAK256 SWAP1 PUSH1 0x3 MUL ADD PUSH1 0x6 DUP7 DUP2 SLOAD DUP2 LT PUSH2 0x9F4 JUMPI PUSH2 0x9F4 PUSH2 0x18B5 JUMP JUMPDEST PUSH1 0x0 SWAP2 DUP3 MSTORE PUSH1 0x20 SWAP1 SWAP2 KECCAK256 DUP3 SLOAD PUSH1 0x3 SWAP1 SWAP3 MUL ADD DUP1 SLOAD PUSH1 0x1 PUSH1 0x1 PUSH1 0xA0 SHL SUB NOT AND PUSH1 0x1 PUSH1 0x1 PUSH1 0xA0 SHL SUB SWAP1 SWAP3 AND SWAP2 SWAP1 SWAP2 OR DUP2 SSTORE PUSH1 0x1 DUP1 DUP4 ADD SLOAD DUP2 DUP4 ADD SSTORE PUSH1 0x2 DUP1 DUP5 ADD SLOAD SWAP1 DUP4 ADD DUP1 SLOAD PUSH1 0xFF SWAP1 SWAP3 AND SWAP3 SWAP1 SWAP2 PUSH1 0xFF NOT AND SWAP1 DUP4 DUP2 DUP2 GT ISZERO PUSH2 0xA56 JUMPI PUSH2 0xA56 PUSH2 0x15AF JUMP JUMPDEST MUL OR SWAP1 SSTORE POP POP POP JUMPDEST PUSH1 0x6 DUP1 SLOAD DUP1 PUSH2 0xA6F JUMPI PUSH2 0xA6F PUSH2 0x1988 JUMP JUMPDEST PUSH1 0x0 DUP3 DUP2 MSTORE PUSH1 0x20 DUP2 KECCAK256 PUSH1 0x3 PUSH1 0x0 NOT SWAP1 SWAP4 ADD SWAP3 DUP4 MUL ADD DUP1 SLOAD PUSH1 0x1 PUSH1 0x1 PUSH1 0xA0 SHL SUB NOT AND DUP2 SSTORE PUSH1 0x1 DUP2 ADD SWAP2 SWAP1 SWAP2 SSTORE PUSH1 0x2 ADD DUP1 SLOAD PUSH1 0xFF NOT AND SWAP1 SSTORE SWAP1 SSTORE POP PUSH2 0xAB5 SWAP3 POP PUSH2 0x1426 SWAP2 POP POP JUMP JUMPDEST POP JUMP JUMPDEST PUSH1 0x0 PUSH2 0xAC3 DUP4 PUSH2 0x61D JUMP JUMPDEST PUSH2 0xADF JUMPI PUSH1 0x40 MLOAD PUSH3 0x461BCD PUSH1 0xE5 SHL DUP2 MSTORE PUSH1 0x4 ADD PUSH2 0x161 SWAP1 PUSH2 0x183D JUMP JUMPDEST PUSH20 0x1D81EC956FB906AD4C863A68CCCB3831550963C1 PUSH1 0x0 SWAP1 DUP2 MSTORE PUSH1 0x4 PUSH1 0x20 SWAP1 DUP2 MSTORE PUSH1 0x0 DUP1 MLOAD PUSH1 0x20 PUSH2 0x19C7 DUP4 CODECOPY DUP2 MLOAD SWAP2 MSTORE DUP1 SLOAD PUSH1 0x40 DUP1 MLOAD DUP3 DUP6 MUL DUP2 ADD DUP6 ADD SWAP1 SWAP2 MSTORE DUP2 DUP2 MSTORE SWAP3 DUP4 ADD DUP3 DUP3 DUP1 ISZERO PUSH2 0xB52 JUMPI PUSH1 0x20 MUL DUP3 ADD SWAP2 SWAP1 PUSH1 0x0 MSTORE PUSH1 0x20 PUSH1 0x0 KECCAK256 SWAP1 JUMPDEST DUP2 SLOAD DUP2 MSTORE PUSH1 0x20 ADD SWAP1 PUSH1 0x1 ADD SWAP1 DUP1 DUP4 GT PUSH2 0xB3E JUMPI JUMPDEST POP POP POP POP POP SWAP1 POP PUSH1 0x0 JUMPDEST DUP2 MLOAD DUP2 LT ISZERO PUSH2 0xBA2 JUMPI DUP2 DUP2 DUP2 MLOAD DUP2 LT PUSH2 0xB77 JUMPI PUSH2 0xB77 PUSH2 0x18B5 JUMP JUMPDEST PUSH1 0x20 MUL PUSH1 0x20 ADD ADD MLOAD DUP5 SUB PUSH2 0xB90 JUMPI PUSH1 0x1 SWAP3 POP POP POP PUSH2 0xBA9 JUMP JUMPDEST DUP1 PUSH2 0xB9A DUP2 PUSH2 0x18CB JUMP JUMPDEST SWAP2 POP POP PUSH2 0xB5C JUMP JUMPDEST POP PUSH1 0x0 SWAP2 POP POP JUMPDEST SWAP3 SWAP2 POP POP JUMP JUMPDEST PUSH1 0x1 SLOAD PUSH1 0x1 PUSH1 0x1 PUSH1 0xA0 SHL SUB AND CALLER EQ PUSH2 0xBD9 JUMPI PUSH1 0x40 MLOAD PUSH3 0x461BCD PUSH1 0xE5 SHL DUP2 MSTORE PUSH1 0x4 ADD PUSH2 0x161 SWAP1 PUSH2 0x17F8 JUMP JUMPDEST PUSH2 0xBE2 DUP3 PUSH2 0x61D JUMP JUMPDEST PUSH2 0xBFE JUMPI PUSH1 0x40 MLOAD PUSH3 0x461BCD PUSH1 0xE5 SHL DUP2 MSTORE PUSH1 0x4 ADD PUSH2 0x161 SWAP1 PUSH2 0x183D JUMP JUMPDEST PUSH2 0xC07 DUP3 PUSH2 0x137B JUMP JUMPDEST PUSH1 0x40 MLOAD PUSH4 0x23B872DD PUSH1 0xE0 SHL DUP2 MSTORE CALLER PUSH1 0x4 DUP3 ADD MSTORE ADDRESS PUSH1 0x24 DUP3 ADD MSTORE PUSH1 0x44 DUP2 ADD DUP4 SWAP1 MSTORE PUSH1 0x1 PUSH1 0x1 PUSH1 0xA0 SHL SUB SWAP2 SWAP1 SWAP2 AND SWAP1 PUSH4 0x23B872DD SWAP1 PUSH1 0x64 ADD PUSH1 0x20 PUSH1 0x40 MLOAD DUP1 DUP4 SUB DUP2 PUSH1 0x0 DUP8 GAS CALL ISZERO DUP1 ISZERO PUSH2 0xC5C JUMPI RETURNDATASIZE PUSH1 0x0 DUP1 RETURNDATACOPY RETURNDATASIZE PUSH1 0x0 REVERT JUMPDEST POP POP POP POP PUSH1 0x40 MLOAD RETURNDATASIZE PUSH1 0x1F NOT PUSH1 0x1F DUP3 ADD AND DUP3 ADD DUP1 PUSH1 0x40 MSTORE POP DUP2 ADD SWAP1 PUSH2 0xC80 SWAP2 SWAP1 PUSH2 0x186A JUMP JUMPDEST POP DUP1 PUSH1 0x5 PUSH1 0x0 PUSH2 0xC8F DUP6 PUSH2 0x137B JUMP JUMPDEST PUSH1 0x1 PUSH1 0x1 PUSH1 0xA0 SHL SUB AND PUSH1 0x1 PUSH1 0x1 PUSH1 0xA0 SHL SUB AND DUP2 MSTORE PUSH1 0x20 ADD SWAP1 DUP2 MSTORE PUSH1 0x20 ADD PUSH1 0x0 KECCAK256 PUSH1 0x0 DUP3 DUP3 SLOAD PUSH2 0x614 SWAP2 SWAP1 PUSH2 0x1951 JUMP JUMPDEST PUSH1 0x1 SLOAD PUSH1 0x1 PUSH1 0x1 PUSH1 0xA0 SHL SUB AND CALLER EQ PUSH2 0xCE8 JUMPI PUSH1 0x40 MLOAD PUSH3 0x461BCD PUSH1 0xE5 SHL DUP2 MSTORE PUSH1 0x4 ADD PUSH2 0x161 SWAP1 PUSH2 0x17F8 JUMP JUMPDEST PUSH1 0x64 DUP2 GT ISZERO PUSH2 0xD44 JUMPI PUSH1 0x40 MLOAD PUSH3 0x461BCD PUSH1 0xE5 SHL DUP2 MSTORE PUSH1 0x20 PUSH1 0x4 DUP3 ADD MSTORE PUSH1 0x22 PUSH1 0x24 DUP3 ADD MSTORE PUSH32 0x4665652070657263656E74616765206D75737420626520313030206F72206C65 PUSH1 0x44 DUP3 ADD MSTORE PUSH2 0x7373 PUSH1 0xF0 SHL PUSH1 0x64 DUP3 ADD MSTORE PUSH1 0x84 ADD PUSH2 0x161 JUMP JUMPDEST PUSH1 0x2 SSTORE JUMP JUMPDEST PUSH1 0x7 SLOAD PUSH1 0x0 SWAP1 PUSH1 0xFF AND ISZERO PUSH2 0xD6F JUMPI PUSH1 0x40 MLOAD PUSH3 0x461BCD PUSH1 0xE5 SHL DUP2 MSTORE PUSH1 0x4 ADD PUSH2 0x161 SWAP1 PUSH2 0x18E4 JUMP JUMPDEST PUSH2 0xD77 PUSH2 0x1413 JUMP JUMPDEST SWAP1 POP SWAP1 JUMP JUMPDEST PUSH1 0x1 SLOAD PUSH1 0x1 PUSH1 0x1 PUSH1 0xA0 SHL SUB AND CALLER EQ PUSH2 0xDA6 JUMPI PUSH1 0x40 MLOAD PUSH3 0x461BCD PUSH1 0xE5 SHL DUP2 MSTORE PUSH1 0x4 ADD PUSH2 0x161 SWAP1 PUSH2 0x17F8 JUMP JUMPDEST PUSH1 0x7 DUP1 SLOAD PUSH1 0xFF NOT AND SWAP1 SSTORE JUMP JUMPDEST PUSH1 0x3 DUP2 DUP2 SLOAD DUP2 LT PUSH2 0xDC2 JUMPI PUSH1 0x0 DUP1 REVERT JUMPDEST SWAP1 PUSH1 0x0 MSTORE PUSH1 0x20 PUSH1 0x0 KECCAK256 SWAP1 PUSH1 0x20 SWAP2 DUP3 DUP3 DIV ADD SWAP2 SWAP1 MOD SWAP2 POP SLOAD SWAP1 PUSH2 0x100 EXP SWAP1 DIV PUSH1 0xFF AND DUP2 JUMP JUMPDEST PUSH1 0x4 PUSH1 0x20 MSTORE DUP2 PUSH1 0x0 MSTORE PUSH1 0x40 PUSH1 0x0 KECCAK256 DUP2 DUP2 SLOAD DUP2 LT PUSH2 0xE02 JUMPI PUSH1 0x0 DUP1 REVERT JUMPDEST SWAP1 PUSH1 0x0 MSTORE PUSH1 0x20 PUSH1 0x0 KECCAK256 ADD PUSH1 0x0 SWAP2 POP SWAP2 POP POP SLOAD DUP2 JUMP JUMPDEST PUSH1 0x1 SLOAD PUSH1 0x1 PUSH1 0x1 PUSH1 0xA0 SHL SUB AND CALLER EQ PUSH2 0xE41 JUMPI PUSH1 0x40 MLOAD PUSH3 0x461BCD PUSH1 0xE5 SHL DUP2 MSTORE PUSH1 0x4 ADD PUSH2 0x161 SWAP1 PUSH2 0x17F8 JUMP JUMPDEST PUSH2 0xE4A DUP3 PUSH2 0x61D JUMP JUMPDEST PUSH2 0xE66 JUMPI PUSH1 0x40 MLOAD PUSH3 0x461BCD PUSH1 0xE5 SHL DUP2 MSTORE PUSH1 0x4 ADD PUSH2 0x161 SWAP1 PUSH2 0x183D JUMP JUMPDEST PUSH20 0x1D81EC956FB906AD4C863A68CCCB3831550963C1 PUSH1 0x0 MSTORE PUSH1 0x4 PUSH1 0x20 SWAP1 DUP2 MSTORE DUP2 MLOAD PUSH2 0xEA4 SWAP2 PUSH1 0x0 DUP1 MLOAD PUSH1 0x20 PUSH2 0x19C7 DUP4 CODECOPY DUP2 MLOAD SWAP2 MSTORE SWAP2 SWAP1 DUP5 ADD SWAP1 PUSH2 0x14F5 JUMP JUMPDEST POP POP POP JUMP JUMPDEST PUSH1 0x7 SLOAD PUSH1 0xFF AND ISZERO PUSH2 0xECC JUMPI PUSH1 0x40 MLOAD PUSH3 0x461BCD PUSH1 0xE5 SHL DUP2 MSTORE PUSH1 0x4 ADD PUSH2 0x161 SWAP1 PUSH2 0x18E4 JUMP JUMPDEST PUSH2 0xED4 PUSH2 0x13E9 JUMP JUMPDEST PUSH2 0xEDD DUP4 PUSH2 0x61D JUMP JUMPDEST PUSH2 0xEF9 JUMPI PUSH1 0x40 MLOAD PUSH3 0x461BCD PUSH1 0xE5 SHL DUP2 MSTORE PUSH1 0x4 ADD PUSH2 0x161 SWAP1 PUSH2 0x183D JUMP JUMPDEST PUSH2 0xF03 DUP4 DUP4 PUSH2 0x142D JUMP JUMPDEST PUSH2 0xF44 JUMPI PUSH1 0x40 MLOAD PUSH3 0x461BCD PUSH1 0xE5 SHL DUP2 MSTORE PUSH1 0x20 PUSH1 0x4 DUP3 ADD MSTORE PUSH1 0x12 PUSH1 0x24 DUP3 ADD MSTORE PUSH18 0x125B9D985B1A590818995D08185B5BDD5B9D PUSH1 0x72 SHL PUSH1 0x44 DUP3 ADD MSTORE PUSH1 0x64 ADD PUSH2 0x161 JUMP JUMPDEST DUP2 PUSH1 0x5 PUSH1 0x0 PUSH2 0xF52 DUP7 PUSH2 0x137B JUMP JUMPDEST PUSH1 0x1 PUSH1 0x1 PUSH1 0xA0 SHL SUB AND PUSH1 0x1 PUSH1 0x1 PUSH1 0xA0 SHL SUB AND DUP2 MSTORE PUSH1 0x20 ADD SWAP1 DUP2 MSTORE PUSH1 0x20 ADD PUSH1 0x0 KECCAK256 SLOAD LT ISZERO PUSH2 0xFB8 JUMPI PUSH1 0x40 MLOAD PUSH3 0x461BCD PUSH1 0xE5 SHL DUP2 MSTORE PUSH1 0x20 PUSH1 0x4 DUP3 ADD MSTORE PUSH1 0x14 PUSH1 0x24 DUP3 ADD MSTORE PUSH20 0x496E73756666696369656E742062616C616E6365 PUSH1 0x60 SHL PUSH1 0x44 DUP3 ADD MSTORE PUSH1 0x64 ADD PUSH2 0x161 JUMP JUMPDEST PUSH1 0x0 PUSH1 0x64 PUSH1 0x2 SLOAD DUP5 PUSH2 0xFCA SWAP2 SWAP1 PUSH2 0x193A JUMP JUMPDEST PUSH2 0xFD4 SWAP2 SWAP1 PUSH2 0x199E JUMP JUMPDEST SWAP1 POP PUSH1 0x0 PUSH2 0xFE2 DUP3 DUP6 PUSH2 0x18A2 JUMP JUMPDEST SWAP1 POP PUSH2 0xFED DUP6 PUSH2 0x137B JUMP JUMPDEST PUSH1 0x40 MLOAD PUSH4 0x23B872DD PUSH1 0xE0 SHL DUP2 MSTORE CALLER PUSH1 0x4 DUP3 ADD MSTORE ADDRESS PUSH1 0x24 DUP3 ADD MSTORE PUSH1 0x44 DUP2 ADD DUP7 SWAP1 MSTORE PUSH1 0x1 PUSH1 0x1 PUSH1 0xA0 SHL SUB SWAP2 SWAP1 SWAP2 AND SWAP1 PUSH4 0x23B872DD SWAP1 PUSH1 0x64 ADD PUSH1 0x20 PUSH1 0x40 MLOAD DUP1 DUP4 SUB DUP2 PUSH1 0x0 DUP8 GAS CALL ISZERO DUP1 ISZERO PUSH2 0x1042 JUMPI RETURNDATASIZE PUSH1 0x0 DUP1 RETURNDATACOPY RETURNDATASIZE PUSH1 0x0 REVERT JUMPDEST POP POP POP POP PUSH1 0x40 MLOAD RETURNDATASIZE PUSH1 0x1F NOT PUSH1 0x1F DUP3 ADD AND DUP3 ADD DUP1 PUSH1 0x40 MSTORE POP DUP2 ADD SWAP1 PUSH2 0x1066 SWAP2 SWAP1 PUSH2 0x186A JUMP JUMPDEST POP DUP1 PUSH1 0x5 PUSH1 0x0 PUSH2 0x1075 DUP9 PUSH2 0x137B JUMP JUMPDEST PUSH1 0x1 PUSH1 0x1 PUSH1 0xA0 SHL SUB AND PUSH1 0x1 PUSH1 0x1 PUSH1 0xA0 SHL SUB AND DUP2 MSTORE PUSH1 0x20 ADD SWAP1 DUP2 MSTORE PUSH1 0x20 ADD PUSH1 0x0 KECCAK256 PUSH1 0x0 DUP3 DUP3 SLOAD PUSH2 0x10A4 SWAP2 SWAP1 PUSH2 0x1951 JUMP JUMPDEST SWAP1 SWAP2 SSTORE POP POP PUSH1 0x40 DUP1 MLOAD PUSH1 0x60 DUP2 ADD DUP3 MSTORE CALLER DUP2 MSTORE PUSH1 0x20 DUP2 ADD DUP4 SWAP1 MSTORE PUSH1 0x0 SWAP2 DUP2 ADD DUP6 PUSH1 0x1 DUP2 GT ISZERO PUSH2 0x10D4 JUMPI PUSH2 0x10D4 PUSH2 0x15AF JUMP JUMPDEST SWAP1 MSTORE PUSH1 0x6 DUP1 SLOAD PUSH1 0x1 DUP1 DUP3 ADD DUP4 SSTORE PUSH1 0x0 SWAP3 SWAP1 SWAP3 MSTORE DUP3 MLOAD PUSH32 0xF652222313E28459528D920B65115C16C04F3EFC82AAEDC97BE59F3F377C0D3F PUSH1 0x3 SWAP1 SWAP3 MUL SWAP2 DUP3 ADD DUP1 SLOAD PUSH1 0x1 PUSH1 0x1 PUSH1 0xA0 SHL SUB NOT AND PUSH1 0x1 PUSH1 0x1 PUSH1 0xA0 SHL SUB SWAP1 SWAP3 AND SWAP2 SWAP1 SWAP2 OR DUP2 SSTORE PUSH1 0x20 DUP5 ADD MLOAD PUSH32 0xF652222313E28459528D920B65115C16C04F3EFC82AAEDC97BE59F3F377C0D40 DUP4 ADD SSTORE PUSH1 0x40 DUP5 ADD MLOAD PUSH32 0xF652222313E28459528D920B65115C16C04F3EFC82AAEDC97BE59F3F377C0D41 SWAP1 SWAP3 ADD DUP1 SLOAD SWAP5 SWAP6 POP DUP6 SWAP5 SWAP2 SWAP4 SWAP1 SWAP2 PUSH1 0xFF NOT AND SWAP1 DUP4 DUP2 DUP2 GT ISZERO PUSH2 0x11A2 JUMPI PUSH2 0x11A2 PUSH2 0x15AF JUMP JUMPDEST MUL OR SWAP1 SSTORE POP POP POP CALLER PUSH1 0x1 PUSH1 0x1 PUSH1 0xA0 SHL SUB AND PUSH32 0x7DF19A783369D9CEFB06E18B396518F817B48766B74157758EDA633A62F58FA7 DUP4 DUP7 PUSH1 0x40 MLOAD PUSH2 0x11E4 SWAP3 SWAP2 SWAP1 PUSH2 0x19B2 JUMP JUMPDEST PUSH1 0x40 MLOAD DUP1 SWAP2 SUB SWAP1 LOG2 POP POP POP PUSH2 0xEA4 PUSH1 0x1 PUSH1 0x0 SSTORE JUMP JUMPDEST PUSH1 0x1 SLOAD PUSH1 0x1 PUSH1 0x1 PUSH1 0xA0 SHL SUB AND CALLER EQ PUSH2 0x1223 JUMPI PUSH1 0x40 MLOAD PUSH3 0x461BCD PUSH1 0xE5 SHL DUP2 MSTORE PUSH1 0x4 ADD PUSH2 0x161 SWAP1 PUSH2 0x17F8 JUMP JUMPDEST PUSH2 0x122C DUP2 PUSH2 0x61D JUMP JUMPDEST ISZERO PUSH2 0x1279 JUMPI PUSH1 0x40 MLOAD PUSH3 0x461BCD PUSH1 0xE5 SHL DUP2 MSTORE PUSH1 0x20 PUSH1 0x4 DUP3 ADD MSTORE PUSH1 0x17 PUSH1 0x24 DUP3 ADD MSTORE PUSH32 0x546F6B656E20616C726561647920737570706F72746564000000000000000000 PUSH1 0x44 DUP3 ADD MSTORE PUSH1 0x64 ADD PUSH2 0x161 JUMP JUMPDEST PUSH1 0x3 DUP1 SLOAD PUSH1 0x1 DUP2 ADD DUP3 SSTORE PUSH1 0x0 SWAP2 SWAP1 SWAP2 MSTORE PUSH32 0xC2575A0E9E593C00F959F8C92F12DB2869C3395A3B0502D05E2516446F71F85B PUSH1 0x20 DUP3 DIV ADD DUP1 SLOAD DUP4 SWAP3 PUSH1 0x1F AND PUSH2 0x100 EXP PUSH1 0xFF DUP2 MUL NOT SWAP1 SWAP2 AND SWAP1 DUP4 DUP1 ISZERO PUSH2 0x12D2 JUMPI PUSH2 0x12D2 PUSH2 0x15AF JUMP JUMPDEST MUL OR SWAP1 SSTORE POP PUSH1 0x0 DUP2 DUP1 ISZERO PUSH2 0x12E8 JUMPI PUSH2 0x12E8 PUSH2 0x15AF JUMP JUMPDEST SUB PUSH2 0xAB5 JUMPI PUSH1 0x40 DUP1 MLOAD PUSH2 0x120 DUP2 ADD DUP3 MSTORE PUSH1 0x1 DUP2 MSTORE PUSH1 0x5 PUSH1 0x20 DUP1 DUP4 ADD SWAP2 SWAP1 SWAP2 MSTORE PUSH1 0xA SWAP3 DUP3 ADD SWAP3 SWAP1 SWAP3 MSTORE PUSH1 0x19 PUSH1 0x60 DUP3 ADD MSTORE PUSH1 0x64 PUSH1 0x80 DUP3 ADD MSTORE PUSH2 0x1F4 PUSH1 0xA0 DUP3 ADD MSTORE PUSH2 0x3E8 PUSH1 0xC0 DUP3 ADD MSTORE PUSH2 0x2710 PUSH1 0xE0 DUP3 ADD MSTORE PUSH2 0x61A8 PUSH2 0x100 DUP3 ADD MSTORE PUSH20 0x1D81EC956FB906AD4C863A68CCCB3831550963C1 PUSH1 0x0 MSTORE PUSH1 0x4 SWAP1 SWAP2 MSTORE PUSH2 0x1377 SWAP1 PUSH1 0x0 DUP1 MLOAD PUSH1 0x20 PUSH2 0x19C7 DUP4 CODECOPY DUP2 MLOAD SWAP2 MSTORE SWAP1 PUSH1 0x9 PUSH2 0x1540 JUMP JUMPDEST POP POP JUMP JUMPDEST PUSH1 0x0 DUP1 DUP3 DUP1 ISZERO PUSH2 0x138D JUMPI PUSH2 0x138D PUSH2 0x15AF JUMP JUMPDEST SUB PUSH2 0x13AD JUMPI POP PUSH20 0x1D81EC956FB906AD4C863A68CCCB3831550963C1 SWAP2 SWAP1 POP JUMP JUMPDEST PUSH1 0x40 MLOAD PUSH3 0x461BCD PUSH1 0xE5 SHL DUP2 MSTORE PUSH1 0x20 PUSH1 0x4 DUP3 ADD MSTORE PUSH1 0x11 PUSH1 0x24 DUP3 ADD MSTORE PUSH17 0x2AB739BAB83837B93A32B2103A37B5B2B7 PUSH1 0x79 SHL PUSH1 0x44 DUP3 ADD MSTORE PUSH1 0x64 ADD PUSH2 0x161 JUMP JUMPDEST PUSH1 0x2 PUSH1 0x0 SLOAD SUB PUSH2 0x140C JUMPI PUSH1 0x40 MLOAD PUSH4 0x3EE5AEB5 PUSH1 0xE0 SHL DUP2 MSTORE PUSH1 0x4 ADD PUSH1 0x40 MLOAD DUP1 SWAP2 SUB SWAP1 REVERT JUMPDEST PUSH1 0x2 PUSH1 0x0 SSTORE JUMP JUMPDEST PUSH1 0x0 PUSH2 0x1420 PUSH1 0x1 NUMBER PUSH2 0x18A2 JUMP JUMPDEST BLOCKHASH SWAP2 SWAP1 POP JUMP JUMPDEST PUSH1 0x1 PUSH1 0x0 SSTORE JUMP JUMPDEST PUSH20 0x1D81EC956FB906AD4C863A68CCCB3831550963C1 PUSH1 0x0 SWAP1 DUP2 MSTORE PUSH1 0x4 PUSH1 0x20 SWAP1 DUP2 MSTORE PUSH1 0x0 DUP1 MLOAD PUSH1 0x20 PUSH2 0x19C7 DUP4 CODECOPY DUP2 MLOAD SWAP2 MSTORE DUP1 SLOAD PUSH1 0x40 DUP1 MLOAD DUP3 DUP6 MUL DUP2 ADD DUP6 ADD SWAP1 SWAP2 MSTORE DUP2 DUP2 MSTORE DUP5 SWAP4 SWAP1 SWAP3 SWAP2 SWAP1 DUP4 ADD DUP3 DUP3 DUP1 ISZERO PUSH2 0x14A5 JUMPI PUSH1 0x20 MUL DUP3 ADD SWAP2 SWAP1 PUSH1 0x0 MSTORE PUSH1 0x20 PUSH1 0x0 KECCAK256 SWAP1 JUMPDEST DUP2 SLOAD DUP2 MSTORE PUSH1 0x20 ADD SWAP1 PUSH1 0x1 ADD SWAP1 DUP1 DUP4 GT PUSH2 0x1491 JUMPI JUMPDEST POP POP POP POP POP SWAP1 POP PUSH1 0x0 JUMPDEST DUP2 MLOAD DUP2 LT ISZERO PUSH2 0xBA2 JUMPI DUP2 DUP2 DUP2 MLOAD DUP2 LT PUSH2 0x14CA JUMPI PUSH2 0x14CA PUSH2 0x18B5 JUMP JUMPDEST PUSH1 0x20 MUL PUSH1 0x20 ADD ADD MLOAD DUP5 SUB PUSH2 0x14E3 JUMPI PUSH1 0x1 SWAP3 POP POP POP PUSH2 0xBA9 JUMP JUMPDEST DUP1 PUSH2 0x14ED DUP2 PUSH2 0x18CB JUMP JUMPDEST SWAP2 POP POP PUSH2 0x14AF JUMP JUMPDEST DUP3 DUP1 SLOAD DUP3 DUP3 SSTORE SWAP1 PUSH1 0x0 MSTORE PUSH1 0x20 PUSH1 0x0 KECCAK256 SWAP1 DUP2 ADD SWAP3 DUP3 ISZERO PUSH2 0x1530 JUMPI SWAP2 PUSH1 0x20 MUL DUP3 ADD JUMPDEST DUP3 DUP2 GT ISZERO PUSH2 0x1530 JUMPI DUP3 MLOAD DUP3 SSTORE SWAP2 PUSH1 0x20 ADD SWAP2 SWAP1 PUSH1 0x1 ADD SWAP1 PUSH2 0x1515 JUMP JUMPDEST POP PUSH2 0x153C SWAP3 SWAP2 POP PUSH2 0x1581 JUMP JUMPDEST POP SWAP1 JUMP JUMPDEST DUP3 DUP1 SLOAD DUP3 DUP3 SSTORE SWAP1 PUSH1 0x0 MSTORE PUSH1 0x20 PUSH1 0x0 KECCAK256 SWAP1 DUP2 ADD SWAP3 DUP3 ISZERO PUSH2 0x1530 JUMPI SWAP2 PUSH1 0x20 MUL DUP3 ADD JUMPDEST DUP3 DUP2 GT ISZERO PUSH2 0x1530 JUMPI DUP3 MLOAD DUP3 SWAP1 PUSH2 0xFFFF AND SWAP1 SSTORE SWAP2 PUSH1 0x20 ADD SWAP2 SWAP1 PUSH1 0x1 ADD SWAP1 PUSH2 0x1560 JUMP JUMPDEST JUMPDEST DUP1 DUP3 GT ISZERO PUSH2 0x153C JUMPI PUSH1 0x0 DUP2 SSTORE PUSH1 0x1 ADD PUSH2 0x1582 JUMP JUMPDEST PUSH1 0x0 PUSH1 0x20 DUP3 DUP5 SUB SLT ISZERO PUSH2 0x15A8 JUMPI PUSH1 0x0 DUP1 REVERT JUMPDEST POP CALLDATALOAD SWAP2 SWAP1 POP JUMP JUMPDEST PUSH4 0x4E487B71 PUSH1 0xE0 SHL PUSH1 0x0 MSTORE PUSH1 0x21 PUSH1 0x4 MSTORE PUSH1 0x24 PUSH1 0x0 REVERT JUMPDEST PUSH1 0x2 DUP2 LT PUSH2 0x15D5 JUMPI PUSH2 0x15D5 PUSH2 0x15AF JUMP JUMPDEST SWAP1 MSTORE JUMP JUMPDEST PUSH1 0x1 PUSH1 0x1 PUSH1 0xA0 SHL SUB DUP5 AND DUP2 MSTORE PUSH1 0x20 DUP2 ADD DUP4 SWAP1 MSTORE PUSH1 0x60 DUP2 ADD PUSH2 0x15FD PUSH1 0x40 DUP4 ADD DUP5 PUSH2 0x15C5 JUMP JUMPDEST SWAP5 SWAP4 POP POP POP POP JUMP JUMPDEST DUP1 CALLDATALOAD PUSH1 0x1 PUSH1 0x1 PUSH1 0xA0 SHL SUB DUP2 AND DUP2 EQ PUSH2 0x161C JUMPI PUSH1 0x0 DUP1 REVERT JUMPDEST SWAP2 SWAP1 POP JUMP JUMPDEST PUSH1 0x0 PUSH1 0x20 DUP3 DUP5 SUB SLT ISZERO PUSH2 0x1633 JUMPI PUSH1 0x0 DUP1 REVERT JUMPDEST PUSH2 0x163C DUP3 PUSH2 0x1605 JUMP JUMPDEST SWAP4 SWAP3 POP POP POP JUMP JUMPDEST DUP1 CALLDATALOAD PUSH1 0x1 DUP2 LT PUSH2 0x161C JUMPI PUSH1 0x0 DUP1 REVERT JUMPDEST PUSH1 0x0 DUP1 PUSH1 0x40 DUP4 DUP6 SUB SLT ISZERO PUSH2 0x1665 JUMPI PUSH1 0x0 DUP1 REVERT JUMPDEST PUSH2 0x166E DUP4 PUSH2 0x1643 JUMP JUMPDEST SWAP5 PUSH1 0x20 SWAP4 SWAP1 SWAP4 ADD CALLDATALOAD SWAP4 POP POP POP JUMP JUMPDEST PUSH1 0x0 PUSH1 0x20 DUP3 DUP5 SUB SLT ISZERO PUSH2 0x168E JUMPI PUSH1 0x0 DUP1 REVERT JUMPDEST PUSH2 0x163C DUP3 PUSH2 0x1643 JUMP JUMPDEST PUSH1 0x20 DUP2 ADD PUSH1 0x1 DUP4 LT PUSH2 0x16AB JUMPI PUSH2 0x16AB PUSH2 0x15AF JUMP JUMPDEST SWAP2 SWAP1 MSTORE SWAP1 JUMP JUMPDEST PUSH1 0x0 DUP1 PUSH1 0x40 DUP4 DUP6 SUB SLT ISZERO PUSH2 0x16C4 JUMPI PUSH1 0x0 DUP1 REVERT JUMPDEST PUSH2 0x166E DUP4 PUSH2 0x1605 JUMP JUMPDEST PUSH4 0x4E487B71 PUSH1 0xE0 SHL PUSH1 0x0 MSTORE PUSH1 0x41 PUSH1 0x4 MSTORE PUSH1 0x24 PUSH1 0x0 REVERT JUMPDEST PUSH1 0x0 DUP1 PUSH1 0x40 DUP4 DUP6 SUB SLT ISZERO PUSH2 0x16F6 JUMPI PUSH1 0x0 DUP1 REVERT JUMPDEST PUSH2 0x16FF DUP4 PUSH2 0x1643 JUMP JUMPDEST SWAP2 POP PUSH1 0x20 DUP1 DUP5 ADD CALLDATALOAD PUSH8 0xFFFFFFFFFFFFFFFF DUP1 DUP3 GT ISZERO PUSH2 0x171D JUMPI PUSH1 0x0 DUP1 REVERT JUMPDEST DUP2 DUP7 ADD SWAP2 POP DUP7 PUSH1 0x1F DUP4 ADD SLT PUSH2 0x1731 JUMPI PUSH1 0x0 DUP1 REVERT JUMPDEST DUP2 CALLDATALOAD DUP2 DUP2 GT ISZERO PUSH2 0x1743 JUMPI PUSH2 0x1743 PUSH2 0x16CD JUMP JUMPDEST DUP1 PUSH1 0x5 SHL PUSH1 0x40 MLOAD PUSH1 0x1F NOT PUSH1 0x3F DUP4 ADD AND DUP2 ADD DUP2 DUP2 LT DUP6 DUP3 GT OR ISZERO PUSH2 0x1768 JUMPI PUSH2 0x1768 PUSH2 0x16CD JUMP JUMPDEST PUSH1 0x40 MSTORE SWAP2 DUP3 MSTORE DUP5 DUP3 ADD SWAP3 POP DUP4 DUP2 ADD DUP6 ADD SWAP2 DUP10 DUP4 GT ISZERO PUSH2 0x1786 JUMPI PUSH1 0x0 DUP1 REVERT JUMPDEST SWAP4 DUP6 ADD SWAP4 JUMPDEST DUP3 DUP6 LT ISZERO PUSH2 0x17A4 JUMPI DUP5 CALLDATALOAD DUP5 MSTORE SWAP4 DUP6 ADD SWAP4 SWAP3 DUP6 ADD SWAP3 PUSH2 0x178B JUMP JUMPDEST DUP1 SWAP7 POP POP POP POP POP POP POP SWAP3 POP SWAP3 SWAP1 POP JUMP JUMPDEST PUSH1 0x0 DUP1 PUSH1 0x0 PUSH1 0x60 DUP5 DUP7 SUB SLT ISZERO PUSH2 0x17C9 JUMPI PUSH1 0x0 DUP1 REVERT JUMPDEST PUSH2 0x17D2 DUP5 PUSH2 0x1643 JUMP JUMPDEST SWAP3 POP PUSH1 0x20 DUP5 ADD CALLDATALOAD SWAP2 POP PUSH1 0x40 DUP5 ADD CALLDATALOAD PUSH1 0x2 DUP2 LT PUSH2 0x17ED JUMPI PUSH1 0x0 DUP1 REVERT JUMPDEST DUP1 SWAP2 POP POP SWAP3 POP SWAP3 POP SWAP3 JUMP JUMPDEST PUSH1 0x20 DUP1 DUP3 MSTORE PUSH1 0x25 SWAP1 DUP3 ADD MSTORE PUSH32 0x4F6E6C7920746865206F776E65722063616E2063616C6C20746869732066756E PUSH1 0x40 DUP3 ADD MSTORE PUSH5 0x31BA34B7B7 PUSH1 0xD9 SHL PUSH1 0x60 DUP3 ADD MSTORE PUSH1 0x80 ADD SWAP1 JUMP JUMPDEST PUSH1 0x20 DUP1 DUP3 MSTORE PUSH1 0x13 SWAP1 DUP3 ADD MSTORE PUSH19 0x151BDAD95B881B9BDD081CDD5C1C1BDC9D1959 PUSH1 0x6A SHL PUSH1 0x40 DUP3 ADD MSTORE PUSH1 0x60 ADD SWAP1 JUMP JUMPDEST PUSH1 0x0 PUSH1 0x20 DUP3 DUP5 SUB SLT ISZERO PUSH2 0x187C JUMPI PUSH1 0x0 DUP1 REVERT JUMPDEST DUP2 MLOAD DUP1 ISZERO ISZERO DUP2 EQ PUSH2 0x163C JUMPI PUSH1 0x0 DUP1 REVERT JUMPDEST PUSH4 0x4E487B71 PUSH1 0xE0 SHL PUSH1 0x0 MSTORE PUSH1 0x11 PUSH1 0x4 MSTORE PUSH1 0x24 PUSH1 0x0 REVERT JUMPDEST DUP2 DUP2 SUB DUP2 DUP2 GT ISZERO PUSH2 0xBA9 JUMPI PUSH2 0xBA9 PUSH2 0x188C JUMP JUMPDEST PUSH4 0x4E487B71 PUSH1 0xE0 SHL PUSH1 0x0 MSTORE PUSH1 0x32 PUSH1 0x4 MSTORE PUSH1 0x24 PUSH1 0x0 REVERT JUMPDEST PUSH1 0x0 PUSH1 0x1 DUP3 ADD PUSH2 0x18DD JUMPI PUSH2 0x18DD PUSH2 0x188C JUMP JUMPDEST POP PUSH1 0x1 ADD SWAP1 JUMP JUMPDEST PUSH1 0x20 DUP1 DUP3 MSTORE PUSH1 0x12 SWAP1 DUP3 ADD MSTORE PUSH18 0x10DBDB9D1C9858DD081A5CC81C185D5CD959 PUSH1 0x72 SHL PUSH1 0x40 DUP3 ADD MSTORE PUSH1 0x60 ADD SWAP1 JUMP JUMPDEST PUSH4 0x4E487B71 PUSH1 0xE0 SHL PUSH1 0x0 MSTORE PUSH1 0x12 PUSH1 0x4 MSTORE PUSH1 0x24 PUSH1 0x0 REVERT JUMPDEST PUSH1 0x0 DUP3 PUSH2 0x1935 JUMPI PUSH2 0x1935 PUSH2 0x1910 JUMP JUMPDEST POP MOD SWAP1 JUMP JUMPDEST DUP1 DUP3 MUL DUP2 ISZERO DUP3 DUP3 DIV DUP5 EQ OR PUSH2 0xBA9 JUMPI PUSH2 0xBA9 PUSH2 0x188C JUMP JUMPDEST DUP1 DUP3 ADD DUP1 DUP3 GT ISZERO PUSH2 0xBA9 JUMPI PUSH2 0xBA9 PUSH2 0x188C JUMP JUMPDEST DUP4 DUP2 MSTORE PUSH1 0x60 DUP2 ADD PUSH2 0x1978 PUSH1 0x20 DUP4 ADD DUP6 PUSH2 0x15C5 JUMP JUMPDEST DUP3 ISZERO ISZERO PUSH1 0x40 DUP4 ADD MSTORE SWAP5 SWAP4 POP POP POP POP JUMP JUMPDEST PUSH4 0x4E487B71 PUSH1 0xE0 SHL PUSH1 0x0 MSTORE PUSH1 0x31 PUSH1 0x4 MSTORE PUSH1 0x24 PUSH1 0x0 REVERT JUMPDEST PUSH1 0x0 DUP3 PUSH2 0x19AD JUMPI PUSH2 0x19AD PUSH2 0x1910 JUMP JUMPDEST POP DIV SWAP1 JUMP JUMPDEST DUP3 DUP2 MSTORE PUSH1 0x40 DUP2 ADD PUSH2 0x163C PUSH1 0x20 DUP4 ADD DUP5 PUSH2 0x15C5 JUMP INVALID PUSH29 0x711A1530B56F8C99DAB5C3DF83BD5190436B0A3016EB40F7B0AF8646F5 DUP8 0xEA LOG2 PUSH5 0x6970667358 0x22 SLT KECCAK256 0xCC DUP1 PUSH23 0x17C7A0FB7C5BD8E4DA48B25368918A5E1F06A625B47B42 SWAP2 0xB4 DUP9 0x5D CALLER 0xE4 PUSH5 0x736F6C6343 STOP ADDMOD GT STOP CALLER "},"methodIdentifiers":{"addSupportedToken(uint8)":"edcadca8","balances(address)":"27e235e3","bets(uint256)":"22af00fa","fundContract(uint8,uint256)":"50d0ec4f","getRandomResult()":"7390c786","houseFeePercentage()":"1780a892","isPaused()":"b187bd26","isTokenSupported(uint8)":"438cb46a","isValidBetAmount(uint8,uint256)":"4e08bbe3","owner()":"8da5cb5b","pauseContract()":"439766ce","placeBet(uint8,uint256,uint8)":"e8696f97","resolveBet(uint256)":"4c36c36e","setHouseFee(uint256)":"5a09f2f4","setValidBetAmounts(uint8,uint256[])":"e08a4ee3","supportedTokens(uint256)":"c6255626","unpauseContract()":"b33712c5","validBetAmounts(address,uint256)":"ceffb08f","withdrawTokens(uint8,uint256)":"36afb788"}}}}}