{
  "_format": "hh-sol-artifact-1",
  "contractName": "BullFlip",
  "sourceName": "contracts/flipcoin.sol",
  "abi": [
    {
      "inputs": [],
      "stateMutability": "nonpayable",
      "type": "constructor"
    },
    {
      "inputs": [],
      "name": "ReentrancyGuardReentrantCall",
      "type": "error"
    },
    {
      "anonymous": false,
      "inputs": [
        {
          "indexed": true,
          "internalType": "address",
          "name": "bettor",
          "type": "address"
        },
        {
          "indexed": false,
          "internalType": "uint256",
          "name": "amount",
          "type": "uint256"
        },
        {
          "indexed": false,
          "internalType": "enum BullFlip.BetOption",
          "name": "betOption",
          "type": "uint8"
        }
      ],
      "name": "BetPlaced",
      "type": "event"
    },
    {
      "anonymous": false,
      "inputs": [
        {
          "indexed": true,
          "internalType": "address",
          "name": "bettor",
          "type": "address"
        },
        {
          "indexed": false,
          "internalType": "uint256",
          "name": "amount",
          "type": "uint256"
        },
        {
          "indexed": false,
          "internalType": "enum BullFlip.BetOption",
          "name": "betOption",
          "type": "uint8"
        },
        {
          "indexed": false,
          "internalType": "bool",
          "name": "won",
          "type": "bool"
        }
      ],
      "name": "BetResolved",
      "type": "event"
    },
    {
      "stateMutability": "nonpayable",
      "type": "fallback"
    },
    {
      "inputs": [
        {
          "internalType": "enum BullFlip.SupportedToken",
          "name": "token",
          "type": "uint8"
        }
      ],
      "name": "addSupportedToken",
      "outputs": [],
      "stateMutability": "nonpayable",
      "type": "function"
    },
    {
      "inputs": [
        {
          "internalType": "address",
          "name": "",
          "type": "address"
        }
      ],
      "name": "balances",
      "outputs": [
        {
          "internalType": "uint256",
          "name": "",
          "type": "uint256"
        }
      ],
      "stateMutability": "view",
      "type": "function"
    },
    {
      "inputs": [
        {
          "internalType": "uint256",
          "name": "",
          "type": "uint256"
        }
      ],
      "name": "bets",
      "outputs": [
        {
          "internalType": "address payable",
          "name": "bettor",
          "type": "address"
        },
        {
          "internalType": "uint256",
          "name": "amount",
          "type": "uint256"
        },
        {
          "internalType": "enum BullFlip.BetOption",
          "name": "betOption",
          "type": "uint8"
        }
      ],
      "stateMutability": "view",
      "type": "function"
    },
    {
      "inputs": [
        {
          "internalType": "enum BullFlip.SupportedToken",
          "name": "token",
          "type": "uint8"
        },
        {
          "internalType": "uint256",
          "name": "amount",
          "type": "uint256"
        }
      ],
      "name": "fundContract",
      "outputs": [],
      "stateMutability": "nonpayable",
      "type": "function"
    },
    {
      "inputs": [],
      "name": "getRandomResult",
      "outputs": [
        {
          "internalType": "uint256",
          "name": "",
          "type": "uint256"
        }
      ],
      "stateMutability": "view",
      "type": "function"
    },
    {
      "inputs": [],
      "name": "houseFeePercentage",
      "outputs": [
        {
          "internalType": "uint256",
          "name": "",
          "type": "uint256"
        }
      ],
      "stateMutability": "view",
      "type": "function"
    },
    {
      "inputs": [],
      "name": "isPaused",
      "outputs": [
        {
          "internalType": "bool",
          "name": "",
          "type": "bool"
        }
      ],
      "stateMutability": "view",
      "type": "function"
    },
    {
      "inputs": [
        {
          "internalType": "enum BullFlip.SupportedToken",
          "name": "token",
          "type": "uint8"
        }
      ],
      "name": "isTokenSupported",
      "outputs": [
        {
          "internalType": "bool",
          "name": "",
          "type": "bool"
        }
      ],
      "stateMutability": "view",
      "type": "function"
    },
    {
      "inputs": [
        {
          "internalType": "enum BullFlip.SupportedToken",
          "name": "token",
          "type": "uint8"
        },
        {
          "internalType": "uint256",
          "name": "amount",
          "type": "uint256"
        }
      ],
      "name": "isValidBetAmount",
      "outputs": [
        {
          "internalType": "bool",
          "name": "",
          "type": "bool"
        }
      ],
      "stateMutability": "view",
      "type": "function"
    },
    {
      "inputs": [],
      "name": "owner",
      "outputs": [
        {
          "internalType": "address",
          "name": "",
          "type": "address"
        }
      ],
      "stateMutability": "view",
      "type": "function"
    },
    {
      "inputs": [],
      "name": "pauseContract",
      "outputs": [],
      "stateMutability": "nonpayable",
      "type": "function"
    },
    {
      "inputs": [
        {
          "internalType": "enum BullFlip.SupportedToken",
          "name": "token",
          "type": "uint8"
        },
        {
          "internalType": "uint256",
          "name": "amount",
          "type": "uint256"
        },
        {
          "internalType": "enum BullFlip.BetOption",
          "name": "betOption",
          "type": "uint8"
        }
      ],
      "name": "placeBet",
      "outputs": [],
      "stateMutability": "nonpayable",
      "type": "function"
    },
    {
      "inputs": [
        {
          "internalType": "uint256",
          "name": "betIndex",
          "type": "uint256"
        }
      ],
      "name": "resolveBet",
      "outputs": [],
      "stateMutability": "nonpayable",
      "type": "function"
    },
    {
      "inputs": [
        {
          "internalType": "uint256",
          "name": "newFee",
          "type": "uint256"
        }
      ],
      "name": "setHouseFee",
      "outputs": [],
      "stateMutability": "nonpayable",
      "type": "function"
    },
    {
      "inputs": [
        {
          "internalType": "enum BullFlip.SupportedToken",
          "name": "token",
          "type": "uint8"
        },
        {
          "internalType": "uint256[]",
          "name": "amounts",
          "type": "uint256[]"
        }
      ],
      "name": "setValidBetAmounts",
      "outputs": [],
      "stateMutability": "nonpayable",
      "type": "function"
    },
    {
      "inputs": [
        {
          "internalType": "uint256",
          "name": "",
          "type": "uint256"
        }
      ],
      "name": "supportedTokens",
      "outputs": [
        {
          "internalType": "enum BullFlip.SupportedToken",
          "name": "",
          "type": "uint8"
        }
      ],
      "stateMutability": "view",
      "type": "function"
    },
    {
      "inputs": [],
      "name": "unpauseContract",
      "outputs": [],
      "stateMutability": "nonpayable",
      "type": "function"
    },
    {
      "inputs": [
        {
          "internalType": "address",
          "name": "",
          "type": "address"
        },
        {
          "internalType": "uint256",
          "name": "",
          "type": "uint256"
        }
      ],
      "name": "validBetAmounts",
      "outputs": [
        {
          "internalType": "uint256",
          "name": "",
          "type": "uint256"
        }
      ],
      "stateMutability": "view",
      "type": "function"
    },
    {
      "inputs": [
        {
          "internalType": "enum BullFlip.SupportedToken",
          "name": "token",
          "type": "uint8"
        },
        {
          "internalType": "uint256",
          "name": "amount",
          "type": "uint256"
        }
      ],
      "name": "withdrawTokens",
      "outputs": [],
      "stateMutability": "nonpayable",
      "type": "function"
    },
    {
      "stateMutability": "payable",
      "type": "receive"
    }
  ],
  "bytecode": "0x608060405260036002553480156200001657600080fd5b506001600081815581546001600160a01b031916331782556003805480840190915560208082047fc2575a0e9e593c00f959f8c92f12db2869c3395a3b0502d05e2516446f71f85b01805460ff601f90941661010090810a94909402191690556040805161012081018252948552600585830152600a9085015260196060850152606460808501526101f460a08501526103e860c085015261271060e08501526161a891840191909152731d81ec956fb906ad4c863a68cccb3831550963c1909152600490526200010b907f7c711a1530b56f8c99dab5c3df83bd5190436b0a3016eb40f7b0af8646f587ea90600962000112565b506200017f565b82805482825590600052602060002090810192821562000156579160200282015b8281111562000156578251829061ffff1690559160200191906001019062000133565b506200016492915062000168565b5090565b5b8082111562000164576000815560010162000169565b611a1c806200018f6000396000f3fe6080604052600436106101185760003560e01c80635a09f2f4116100a0578063c625562611610064578063c6255626146103a7578063ceffb08f146103d4578063e08a4ee3146103f4578063e8696f9714610414578063edcadca8146104345761016a565b80635a09f2f41461030b5780637390c7861461032b5780638da5cb5b14610340578063b187bd2614610378578063b33712c5146103925761016a565b8063438cb46a116100e7578063438cb46a14610266578063439766ce146102965780634c36c36e146102ab5780634e08bbe3146102cb57806350d0ec4f146102eb5761016a565b80631780a892146101bf57806322af00fa146101e857806327e235e31461021757806336afb788146102445761016a565b3661016a5760405162461bcd60e51b815260206004820152601c60248201527f526563656976652066756e6374696f6e206e6f7420616c6c6f7765640000000060448201526064015b60405180910390fd5b34801561017657600080fd5b5060405162461bcd60e51b815260206004820152601d60248201527f46616c6c6261636b2066756e6374696f6e206e6f7420616c6c6f7765640000006044820152606401610161565b3480156101cb57600080fd5b506101d560025481565b6040519081526020015b60405180910390f35b3480156101f457600080fd5b50610208610203366004611596565b610454565b6040516101df939291906115d9565b34801561022357600080fd5b506101d5610232366004611621565b60056020526000908152604090205481565b34801561025057600080fd5b5061026461025f366004611652565b610494565b005b34801561027257600080fd5b5061028661028136600461167c565b61061d565b60405190151581526020016101df565b3480156102a257600080fd5b506102646106a4565b3480156102b757600080fd5b506102646102c6366004611596565b6106dd565b3480156102d757600080fd5b506102866102e6366004611652565b610ab8565b3480156102f757600080fd5b50610264610306366004611652565b610baf565b34801561031757600080fd5b50610264610326366004611596565b610cbe565b34801561033757600080fd5b506101d5610d49565b34801561034c57600080fd5b50600154610360906001600160a01b031681565b6040516001600160a01b0390911681526020016101df565b34801561038457600080fd5b506007546102869060ff1681565b34801561039e57600080fd5b50610264610d7c565b3480156103b357600080fd5b506103c76103c2366004611596565b610db2565b6040516101df9190611697565b3480156103e057600080fd5b506101d56103ef3660046116b1565b610de6565b34801561040057600080fd5b5061026461040f3660046116e3565b610e17565b34801561042057600080fd5b5061026461042f3660046117b4565b610ea9565b34801561044057600080fd5b5061026461044f36600461167c565b6111f9565b6006818154811061046457600080fd5b60009182526020909120600390910201805460018201546002909201546001600160a01b03909116925060ff1683565b6001546001600160a01b031633146104be5760405162461bcd60e51b8152600401610161906117f8565b6104c78261061d565b6104e35760405162461bcd60e51b81526004016101619061183d565b600560006104f08461137b565b6001600160a01b03166001600160a01b03168152602001908152602001600020548111156105575760405162461bcd60e51b8152602060048201526014602482015273496e73756666696369656e742062616c616e636560601b6044820152606401610161565b6105608261137b565b60015460405163a9059cbb60e01b81526001600160a01b0391821660048201526024810184905291169063a9059cbb906044016020604051808303816000875af11580156105b2573d6000803e3d6000fd5b505050506040513d601f19601f820116820180604052508101906105d6919061186a565b5080600560006105e58561137b565b6001600160a01b03166001600160a01b03168152602001908152602001600020600082825461061491906118a2565b90915550505050565b6000805b60035481101561069b5782801561063a5761063a6115af565b6003828154811061064d5761064d6118b5565b60009182526020918290209181049091015460ff601f9092166101000a900416801561067b5761067b6115af565b036106895750600192915050565b80610693816118cb565b915050610621565b50600092915050565b6001546001600160a01b031633146106ce5760405162461bcd60e51b8152600401610161906117f8565b6007805460ff19166001179055565b60075460ff16156107005760405162461bcd60e51b8152600401610161906118e4565b6107086113e9565b600654811061074d5760405162461bcd60e51b8152602060048201526011602482015270092dcecc2d8d2c840c4cae840d2dcc8caf607b1b6044820152606401610161565b600060068281548110610762576107626118b5565b6000918252602090912060039091020180549091506001600160a01b031633146107c75760405162461bcd60e51b81526020600482015260166024820152752cb7ba9030b932903737ba103a3432903132ba3a37b960511b6044820152606401610161565b600060026107d3611413565b6107dd9190611926565b60018111156107ee576107ee6115af565b90506000816001811115610804576108046115af565b600284015460ff16600181111561081d5761081d6115af565b149050801561090557600083600101546002610839919061193a565b9050610845600061137b565b845460405163a9059cbb60e01b81526001600160a01b0391821660048201526024810184905291169063a9059cbb906044016020604051808303816000875af1158015610896573d6000803e3d6000fd5b505050506040513d601f19601f820116820180604052508101906108ba919061186a565b5080600560006108ca600061137b565b6001600160a01b03166001600160a01b0316815260200190815260200160002060008282546108f991906118a2565b9091555061094d915050565b826001015460056000610918600061137b565b6001600160a01b03166001600160a01b0316815260200190815260200160002060008282546109479190611951565b90915550505b8254600184015460028501546040516001600160a01b03909316927f7d29be4faf358aa0a5a7d5f699be917bbae8a0d498775d276324b4f0e10b77b69261099d92909160ff909116908690611964565b60405180910390a26006546000906109b7906001906118a2565b9050808514610a5e57600681815481106109d3576109d36118b5565b9060005260206000209060030201600686815481106109f4576109f46118b5565b60009182526020909120825460039092020180546001600160a01b0319166001600160a01b0390921691909117815560018083015481830155600280840154908301805460ff90921692909160ff1916908381811115610a5657610a566115af565b021790555050505b6006805480610a6f57610a6f611988565b60008281526020812060036000199093019283020180546001600160a01b03191681556001810191909155600201805460ff19169055905550610ab59250611426915050565b50565b6000610ac38361061d565b610adf5760405162461bcd60e51b81526004016101619061183d565b731d81ec956fb906ad4c863a68cccb3831550963c16000908152600460209081526000805160206119c78339815191528054604080518285028101850190915281815292830182828015610b5257602002820191906000526020600020905b815481526020019060010190808311610b3e575b5050505050905060005b8151811015610ba257818181518110610b7757610b776118b5565b60200260200101518403610b9057600192505050610ba9565b80610b9a816118cb565b915050610b5c565b5060009150505b92915050565b6001546001600160a01b03163314610bd95760405162461bcd60e51b8152600401610161906117f8565b610be28261061d565b610bfe5760405162461bcd60e51b81526004016101619061183d565b610c078261137b565b6040516323b872dd60e01b8152336004820152306024820152604481018390526001600160a01b0391909116906323b872dd906064016020604051808303816000875af1158015610c5c573d6000803e3d6000fd5b505050506040513d601f19601f82011682018060405250810190610c80919061186a565b508060056000610c8f8561137b565b6001600160a01b03166001600160a01b0316815260200190815260200160002060008282546106149190611951565b6001546001600160a01b03163314610ce85760405162461bcd60e51b8152600401610161906117f8565b6064811115610d445760405162461bcd60e51b815260206004820152602260248201527f4665652070657263656e74616765206d75737420626520313030206f72206c65604482015261737360f01b6064820152608401610161565b600255565b60075460009060ff1615610d6f5760405162461bcd60e51b8152600401610161906118e4565b610d77611413565b905090565b6001546001600160a01b03163314610da65760405162461bcd60e51b8152600401610161906117f8565b6007805460ff19169055565b60038181548110610dc257600080fd5b9060005260206000209060209182820401919006915054906101000a900460ff1681565b60046020528160005260406000208181548110610e0257600080fd5b90600052602060002001600091509150505481565b6001546001600160a01b03163314610e415760405162461bcd60e51b8152600401610161906117f8565b610e4a8261061d565b610e665760405162461bcd60e51b81526004016101619061183d565b731d81ec956fb906ad4c863a68cccb3831550963c1600052600460209081528151610ea4916000805160206119c783398151915291908401906114f5565b505050565b60075460ff1615610ecc5760405162461bcd60e51b8152600401610161906118e4565b610ed46113e9565b610edd8361061d565b610ef95760405162461bcd60e51b81526004016101619061183d565b610f03838361142d565b610f445760405162461bcd60e51b8152602060048201526012602482015271125b9d985b1a590818995d08185b5bdd5b9d60721b6044820152606401610161565b8160056000610f528661137b565b6001600160a01b03166001600160a01b03168152602001908152602001600020541015610fb85760405162461bcd60e51b8152602060048201526014602482015273496e73756666696369656e742062616c616e636560601b6044820152606401610161565b6000606460025484610fca919061193a565b610fd4919061199e565b90506000610fe282856118a2565b9050610fed8561137b565b6040516323b872dd60e01b8152336004820152306024820152604481018690526001600160a01b0391909116906323b872dd906064016020604051808303816000875af1158015611042573d6000803e3d6000fd5b505050506040513d601f19601f82011682018060405250810190611066919061186a565b5080600560006110758861137b565b6001600160a01b03166001600160a01b0316815260200190815260200160002060008282546110a49190611951565b9091555050604080516060810182523381526020810183905260009181018560018111156110d4576110d46115af565b9052600680546001808201835560009290925282517ff652222313e28459528d920b65115c16c04f3efc82aaedc97be59f3f377c0d3f600390920291820180546001600160a01b0319166001600160a01b0390921691909117815560208401517ff652222313e28459528d920b65115c16c04f3efc82aaedc97be59f3f377c0d4083015560408401517ff652222313e28459528d920b65115c16c04f3efc82aaedc97be59f3f377c0d41909201805494955085949193909160ff19169083818111156111a2576111a26115af565b02179055505050336001600160a01b03167f7df19a783369d9cefb06e18b396518f817b48766b74157758eda633a62f58fa783866040516111e49291906119b2565b60405180910390a2505050610ea46001600055565b6001546001600160a01b031633146112235760405162461bcd60e51b8152600401610161906117f8565b61122c8161061d565b156112795760405162461bcd60e51b815260206004820152601760248201527f546f6b656e20616c726561647920737570706f727465640000000000000000006044820152606401610161565b600380546001810182556000919091527fc2575a0e9e593c00f959f8c92f12db2869c3395a3b0502d05e2516446f71f85b602082040180548392601f166101000a60ff810219909116908380156112d2576112d26115af565b021790555060008180156112e8576112e86115af565b03610ab5576040805161012081018252600181526005602080830191909152600a9282019290925260196060820152606460808201526101f460a08201526103e860c082015261271060e08201526161a8610100820152731d81ec956fb906ad4c863a68cccb3831550963c16000526004909152611377906000805160206119c7833981519152906009611540565b5050565b60008082801561138d5761138d6115af565b036113ad5750731d81ec956fb906ad4c863a68cccb3831550963c1919050565b60405162461bcd60e51b81526020600482015260116024820152702ab739bab83837b93a32b2103a37b5b2b760791b6044820152606401610161565b60026000540361140c57604051633ee5aeb560e01b815260040160405180910390fd5b6002600055565b60006114206001436118a2565b40919050565b6001600055565b731d81ec956fb906ad4c863a68cccb3831550963c16000908152600460209081526000805160206119c7833981519152805460408051828502810185019091528181528493909291908301828280156114a557602002820191906000526020600020905b815481526020019060010190808311611491575b5050505050905060005b8151811015610ba2578181815181106114ca576114ca6118b5565b602002602001015184036114e357600192505050610ba9565b806114ed816118cb565b9150506114af565b828054828255906000526020600020908101928215611530579160200282015b82811115611530578251825591602001919060010190611515565b5061153c929150611581565b5090565b828054828255906000526020600020908101928215611530579160200282015b82811115611530578251829061ffff16905591602001919060010190611560565b5b8082111561153c5760008155600101611582565b6000602082840312156115a857600080fd5b5035919050565b634e487b7160e01b600052602160045260246000fd5b600281106115d5576115d56115af565b9052565b6001600160a01b038416815260208101839052606081016115fd60408301846115c5565b949350505050565b80356001600160a01b038116811461161c57600080fd5b919050565b60006020828403121561163357600080fd5b61163c82611605565b9392505050565b80356001811061161c57600080fd5b6000806040838503121561166557600080fd5b61166e83611643565b946020939093013593505050565b60006020828403121561168e57600080fd5b61163c82611643565b60208101600183106116ab576116ab6115af565b91905290565b600080604083850312156116c457600080fd5b61166e83611605565b634e487b7160e01b600052604160045260246000fd5b600080604083850312156116f657600080fd5b6116ff83611643565b915060208084013567ffffffffffffffff8082111561171d57600080fd5b818601915086601f83011261173157600080fd5b813581811115611743576117436116cd565b8060051b604051601f19603f83011681018181108582111715611768576117686116cd565b60405291825284820192508381018501918983111561178657600080fd5b938501935b828510156117a45784358452938501939285019261178b565b8096505050505050509250929050565b6000806000606084860312156117c957600080fd5b6117d284611643565b9250602084013591506040840135600281106117ed57600080fd5b809150509250925092565b60208082526025908201527f4f6e6c7920746865206f776e65722063616e2063616c6c20746869732066756e60408201526431ba34b7b760d91b606082015260800190565b602080825260139082015272151bdad95b881b9bdd081cdd5c1c1bdc9d1959606a1b604082015260600190565b60006020828403121561187c57600080fd5b8151801515811461163c57600080fd5b634e487b7160e01b600052601160045260246000fd5b81810381811115610ba957610ba961188c565b634e487b7160e01b600052603260045260246000fd5b6000600182016118dd576118dd61188c565b5060010190565b60208082526012908201527110dbdb9d1c9858dd081a5cc81c185d5cd95960721b604082015260600190565b634e487b7160e01b600052601260045260246000fd5b60008261193557611935611910565b500690565b8082028115828204841417610ba957610ba961188c565b80820180821115610ba957610ba961188c565b8381526060810161197860208301856115c5565b8215156040830152949350505050565b634e487b7160e01b600052603160045260246000fd5b6000826119ad576119ad611910565b500490565b8281526040810161163c60208301846115c556fe7c711a1530b56f8c99dab5c3df83bd5190436b0a3016eb40f7b0af8646f587eaa2646970667358221220cc807617c7a0fb7c5bd8e4da48b25368918a5e1f06a625b47b4291b4885d33e464736f6c63430008110033",
  "linkReferences": {},
  "deployedLinkReferences": {}
}