{
  "_format": "hh-sol-artifact-1",
  "contractName": "BaseCrowdFunding",
  "sourceName": "contracts/BaseCrowdFunding.sol",
  "abi": [
    {
      "inputs": [],
      "stateMutability": "nonpayable",
      "type": "constructor"
    },
    {
      "anonymous": false,
      "inputs": [
        {
          "indexed": true,
          "internalType": "uint256",
          "name": "campaignId",
          "type": "uint256"
        }
      ],
      "name": "CampaignCanceled",
      "type": "event"
    },
    {
      "anonymous": false,
      "inputs": [
        {
          "indexed": true,
          "internalType": "address",
          "name": "creator",
          "type": "address"
        },
        {
          "indexed": false,
          "internalType": "uint256",
          "name": "campaignId",
          "type": "uint256"
        }
      ],
      "name": "CampaignCreated",
      "type": "event"
    },
    {
      "anonymous": false,
      "inputs": [
        {
          "indexed": true,
          "internalType": "uint256",
          "name": "campaignId",
          "type": "uint256"
        },
        {
          "indexed": true,
          "internalType": "address",
          "name": "donor",
          "type": "address"
        },
        {
          "indexed": false,
          "internalType": "uint256",
          "name": "amount",
          "type": "uint256"
        },
        {
          "indexed": false,
          "internalType": "bool",
          "name": "isEther",
          "type": "bool"
        }
      ],
      "name": "DonationReceived",
      "type": "event"
    },
    {
      "anonymous": false,
      "inputs": [
        {
          "indexed": true,
          "internalType": "uint256",
          "name": "campaignId",
          "type": "uint256"
        }
      ],
      "name": "FundsWithdrawn",
      "type": "event"
    },
    {
      "inputs": [
        {
          "internalType": "address",
          "name": "erc1155",
          "type": "address"
        },
        {
          "internalType": "address",
          "name": "erc721",
          "type": "address"
        }
      ],
      "name": "addNFTCollectionAddresses",
      "outputs": [],
      "stateMutability": "nonpayable",
      "type": "function"
    },
    {
      "inputs": [],
      "name": "campaignCreationFee",
      "outputs": [
        {
          "internalType": "uint256",
          "name": "",
          "type": "uint256"
        }
      ],
      "stateMutability": "view",
      "type": "function"
    },
    {
      "inputs": [
        {
          "internalType": "uint256",
          "name": "",
          "type": "uint256"
        }
      ],
      "name": "campaigns",
      "outputs": [
        {
          "internalType": "address",
          "name": "owner",
          "type": "address"
        },
        {
          "internalType": "string",
          "name": "title",
          "type": "string"
        },
        {
          "internalType": "string",
          "name": "description",
          "type": "string"
        },
        {
          "internalType": "uint256",
          "name": "target",
          "type": "uint256"
        },
        {
          "internalType": "uint256",
          "name": "deadline",
          "type": "uint256"
        },
        {
          "internalType": "uint256",
          "name": "amountCollected",
          "type": "uint256"
        },
        {
          "internalType": "uint256",
          "name": "amountCollectedERC20",
          "type": "uint256"
        },
        {
          "internalType": "string",
          "name": "image",
          "type": "string"
        },
        {
          "internalType": "bool",
          "name": "canceled",
          "type": "bool"
        }
      ],
      "stateMutability": "view",
      "type": "function"
    },
    {
      "inputs": [
        {
          "internalType": "uint256",
          "name": "_id",
          "type": "uint256"
        }
      ],
      "name": "cancelCampaign",
      "outputs": [],
      "stateMutability": "nonpayable",
      "type": "function"
    },
    {
      "inputs": [
        {
          "internalType": "uint256",
          "name": "newFee",
          "type": "uint256"
        }
      ],
      "name": "changeCampaignCreationFee",
      "outputs": [],
      "stateMutability": "nonpayable",
      "type": "function"
    },
    {
      "inputs": [
        {
          "internalType": "address",
          "name": "newERC20Token",
          "type": "address"
        }
      ],
      "name": "changeERC20Token",
      "outputs": [],
      "stateMutability": "nonpayable",
      "type": "function"
    },
    {
      "inputs": [],
      "name": "contractOwner",
      "outputs": [
        {
          "internalType": "address",
          "name": "",
          "type": "address"
        }
      ],
      "stateMutability": "view",
      "type": "function"
    },
    {
      "inputs": [
        {
          "internalType": "string",
          "name": "_title",
          "type": "string"
        },
        {
          "internalType": "string",
          "name": "_description",
          "type": "string"
        },
        {
          "internalType": "uint256",
          "name": "_target",
          "type": "uint256"
        },
        {
          "internalType": "uint256",
          "name": "_deadline",
          "type": "uint256"
        },
        {
          "internalType": "string",
          "name": "_image",
          "type": "string"
        }
      ],
      "name": "createCampaign",
      "outputs": [],
      "stateMutability": "payable",
      "type": "function"
    },
    {
      "inputs": [
        {
          "internalType": "uint256",
          "name": "_id",
          "type": "uint256"
        },
        {
          "internalType": "uint256",
          "name": "_amount",
          "type": "uint256"
        }
      ],
      "name": "donateERC20ToCampaign",
      "outputs": [],
      "stateMutability": "nonpayable",
      "type": "function"
    },
    {
      "inputs": [
        {
          "internalType": "uint256",
          "name": "_id",
          "type": "uint256"
        }
      ],
      "name": "donateToCampaign",
      "outputs": [],
      "stateMutability": "payable",
      "type": "function"
    },
    {
      "inputs": [],
      "name": "enableFreeCampaignCreationLimits",
      "outputs": [
        {
          "internalType": "bool",
          "name": "",
          "type": "bool"
        }
      ],
      "stateMutability": "view",
      "type": "function"
    },
    {
      "inputs": [],
      "name": "erc1155Address",
      "outputs": [
        {
          "internalType": "address",
          "name": "",
          "type": "address"
        }
      ],
      "stateMutability": "view",
      "type": "function"
    },
    {
      "inputs": [],
      "name": "erc20Token",
      "outputs": [
        {
          "internalType": "contract IERC20",
          "name": "",
          "type": "address"
        }
      ],
      "stateMutability": "view",
      "type": "function"
    },
    {
      "inputs": [],
      "name": "erc721Address",
      "outputs": [
        {
          "internalType": "address",
          "name": "",
          "type": "address"
        }
      ],
      "stateMutability": "view",
      "type": "function"
    },
    {
      "inputs": [],
      "name": "feeWallet",
      "outputs": [
        {
          "internalType": "address",
          "name": "",
          "type": "address"
        }
      ],
      "stateMutability": "view",
      "type": "function"
    },
    {
      "inputs": [],
      "name": "freeCampaignCreationLimit1",
      "outputs": [
        {
          "internalType": "uint256",
          "name": "",
          "type": "uint256"
        }
      ],
      "stateMutability": "view",
      "type": "function"
    },
    {
      "inputs": [],
      "name": "freeCampaignCreationLimit2",
      "outputs": [
        {
          "internalType": "uint256",
          "name": "",
          "type": "uint256"
        }
      ],
      "stateMutability": "view",
      "type": "function"
    },
    {
      "inputs": [
        {
          "internalType": "address",
          "name": "",
          "type": "address"
        }
      ],
      "name": "freeCampaignCreations",
      "outputs": [
        {
          "internalType": "uint256",
          "name": "",
          "type": "uint256"
        }
      ],
      "stateMutability": "view",
      "type": "function"
    },
    {
      "inputs": [],
      "name": "getAllCampaigns",
      "outputs": [
        {
          "components": [
            {
              "internalType": "address",
              "name": "owner",
              "type": "address"
            },
            {
              "internalType": "string",
              "name": "title",
              "type": "string"
            },
            {
              "internalType": "string",
              "name": "description",
              "type": "string"
            },
            {
              "internalType": "uint256",
              "name": "target",
              "type": "uint256"
            },
            {
              "internalType": "uint256",
              "name": "deadline",
              "type": "uint256"
            },
            {
              "internalType": "uint256",
              "name": "amountCollected",
              "type": "uint256"
            },
            {
              "internalType": "uint256",
              "name": "amountCollectedERC20",
              "type": "uint256"
            },
            {
              "internalType": "string",
              "name": "image",
              "type": "string"
            },
            {
              "internalType": "address[]",
              "name": "donators",
              "type": "address[]"
            },
            {
              "internalType": "uint256[]",
              "name": "donations",
              "type": "uint256[]"
            },
            {
              "internalType": "uint256[]",
              "name": "donationsERC20",
              "type": "uint256[]"
            },
            {
              "internalType": "bool",
              "name": "canceled",
              "type": "bool"
            }
          ],
          "internalType": "struct BaseCrowdFunding.Campaign[]",
          "name": "",
          "type": "tuple[]"
        }
      ],
      "stateMutability": "view",
      "type": "function"
    },
    {
      "inputs": [
        {
          "internalType": "uint256",
          "name": "_id",
          "type": "uint256"
        }
      ],
      "name": "getCampaign",
      "outputs": [
        {
          "components": [
            {
              "internalType": "address",
              "name": "owner",
              "type": "address"
            },
            {
              "internalType": "string",
              "name": "title",
              "type": "string"
            },
            {
              "internalType": "string",
              "name": "description",
              "type": "string"
            },
            {
              "internalType": "uint256",
              "name": "target",
              "type": "uint256"
            },
            {
              "internalType": "uint256",
              "name": "deadline",
              "type": "uint256"
            },
            {
              "internalType": "uint256",
              "name": "amountCollected",
              "type": "uint256"
            },
            {
              "internalType": "uint256",
              "name": "amountCollectedERC20",
              "type": "uint256"
            },
            {
              "internalType": "string",
              "name": "image",
              "type": "string"
            },
            {
              "internalType": "address[]",
              "name": "donators",
              "type": "address[]"
            },
            {
              "internalType": "uint256[]",
              "name": "donations",
              "type": "uint256[]"
            },
            {
              "internalType": "uint256[]",
              "name": "donationsERC20",
              "type": "uint256[]"
            },
            {
              "internalType": "bool",
              "name": "canceled",
              "type": "bool"
            }
          ],
          "internalType": "struct BaseCrowdFunding.Campaign",
          "name": "",
          "type": "tuple"
        }
      ],
      "stateMutability": "view",
      "type": "function"
    },
    {
      "inputs": [
        {
          "internalType": "uint256",
          "name": "_id",
          "type": "uint256"
        }
      ],
      "name": "getDonators",
      "outputs": [
        {
          "internalType": "address[]",
          "name": "",
          "type": "address[]"
        },
        {
          "internalType": "uint256[]",
          "name": "",
          "type": "uint256[]"
        }
      ],
      "stateMutability": "view",
      "type": "function"
    },
    {
      "inputs": [],
      "name": "getNumberOfCampaigns",
      "outputs": [
        {
          "internalType": "uint256",
          "name": "",
          "type": "uint256"
        }
      ],
      "stateMutability": "view",
      "type": "function"
    },
    {
      "inputs": [],
      "name": "numberOfCampaigns",
      "outputs": [
        {
          "internalType": "uint256",
          "name": "",
          "type": "uint256"
        }
      ],
      "stateMutability": "view",
      "type": "function"
    },
    {
      "inputs": [
        {
          "internalType": "bool",
          "name": "enable",
          "type": "bool"
        }
      ],
      "name": "toggleFreeCampaignCreationLimits",
      "outputs": [],
      "stateMutability": "nonpayable",
      "type": "function"
    },
    {
      "inputs": [
        {
          "internalType": "address",
          "name": "newOwner",
          "type": "address"
        }
      ],
      "name": "transferOwnership",
      "outputs": [],
      "stateMutability": "nonpayable",
      "type": "function"
    },
    {
      "inputs": [
        {
          "internalType": "uint256",
          "name": "_id",
          "type": "uint256"
        }
      ],
      "name": "withdrawFunds",
      "outputs": [],
      "stateMutability": "nonpayable",
      "type": "function"
    }
  ],
  "bytecode": "0x60806040526000600190815566011d94d275a00060025560088190556003600955600b805460ff1916909117905534801561003957600080fd5b50600480546001600160a01b0319908116331790915560038054821673864ae6a6d4f7cf4b25140dc28e0f8f29bfe4cb4817905560058054821673c1b6844d5134c8e550043f01ffbf49ca66efc77f179055600680548216739d4fa04b3ef4e623b3807e44cf8072c08123e1f91790556007805490911673617e2b0ce5ae1c5b93acbd4181f10a6fbc225905179055612543806100d76000396000f3fe6080604052600436106101815760003560e01c8063793b2793116100d1578063d8eb2bb61161008a578063f25f4b5611610064578063f25f4b5614610483578063f2fde38b146104a3578063f30c49dc146104c3578063ffee9f54146104d957600080fd5b8063d8eb2bb614610424578063e4aafc2c14610444578063e780cd5b1461045957600080fd5b8063793b27931461037957806386cdf6041461038f5780638a13eea7146103b15780639a03ad63146103d1578063ce606ee0146103f1578063d4e3dd6f1461041157600080fd5b80632352a8641161013e57806345598b4a1161011857806345598b4a146102ec5780635598f8cc1461030c57806368c5f05d14610339578063695b3e6c1461035957600080fd5b80632352a864146102995780632eec09be146102b957806342a4fda8146102d957600080fd5b8063051420021461018657806307ca140d146101c35780630fa91fa9146101e7578063141961bc14610215578063149067071461024a578063155dd5ee14610277575b600080fd5b34801561019257600080fd5b506006546101a6906001600160a01b031681565b6040516001600160a01b0390911681526020015b60405180910390f35b3480156101cf57600080fd5b506101d960015481565b6040519081526020016101ba565b3480156101f357600080fd5b50610207610202366004611e3c565b6104ef565b6040516101ba929190611e55565b34801561022157600080fd5b50610235610230366004611e3c565b6105bc565b6040516101ba99989796959493929190611f26565b34801561025657600080fd5b506101d9610265366004611fbd565b600a6020526000908152604090205481565b34801561028357600080fd5b50610297610292366004611e3c565b6107a8565b005b3480156102a557600080fd5b506007546101a6906001600160a01b031681565b3480156102c557600080fd5b506102976102d4366004611fef565b6109b7565b6102976102e7366004611e3c565b6109f4565b3480156102f857600080fd5b50610297610307366004611e3c565b610be0565b34801561031857600080fd5b5061032c610327366004611e3c565b610e31565b6040516101ba919061217a565b34801561034557600080fd5b50610297610354366004611e3c565b61118c565b34801561036557600080fd5b50610297610374366004611fbd565b6111bb565b34801561038557600080fd5b506101d960085481565b34801561039b57600080fd5b506103a4611207565b6040516101ba919061218d565b3480156103bd57600080fd5b506005546101a6906001600160a01b031681565b3480156103dd57600080fd5b506102976103ec3660046121ef565b6115d3565b3480156103fd57600080fd5b506004546101a6906001600160a01b031681565b61029761041f3660046122b4565b611881565b34801561043057600080fd5b5061029761043f366004612350565b611c93565b34801561045057600080fd5b506001546101d9565b34801561046557600080fd5b50600b546104739060ff1681565b60405190151581526020016101ba565b34801561048f57600080fd5b506003546101a6906001600160a01b031681565b3480156104af57600080fd5b506102976104be366004611fbd565b611ceb565b3480156104cf57600080fd5b506101d960025481565b3480156104e557600080fd5b506101d960095481565b6000818152602081815260409182902060088101805484518185028101850190955280855260609485946009850192849183018282801561055957602002820191906000526020600020905b81546001600160a01b0316815260019091019060200180831161053b575b50505050509150808054806020026020016040519081016040528092919081815260200182805480156105ab57602002820191906000526020600020905b815481526020019060010190808311610597575b505050505090509250925050915091565b600060208190529081526040902080546001820180546001600160a01b0390921692916105e890612389565b80601f016020809104026020016040519081016040528092919081815260200182805461061490612389565b80156106615780601f1061063657610100808354040283529160200191610661565b820191906000526020600020905b81548152906001019060200180831161064457829003601f168201915b50505050509080600201805461067690612389565b80601f01602080910402602001604051908101604052809291908181526020018280546106a290612389565b80156106ef5780601f106106c4576101008083540402835291602001916106ef565b820191906000526020600020905b8154815290600101906020018083116106d257829003601f168201915b50505050509080600301549080600401549080600501549080600601549080600701805461071c90612389565b80601f016020809104026020016040519081016040528092919081815260200182805461074890612389565b80156107955780601f1061076a57610100808354040283529160200191610795565b820191906000526020600020905b81548152906001019060200180831161077857829003601f168201915b505050600b909301549192505060ff1689565b60015481106107d25760405162461bcd60e51b81526004016107c9906123be565b60405180910390fd5b600081815260208190526040902080546001600160a01b031633146108435760405162461bcd60e51b815260206004820152602160248201527f4f6e6c7920746865206f776e65722063616e2077697468647261772066756e646044820152607360f81b60648201526084016107c9565b600b81015460ff16156108a95760405162461bcd60e51b815260206004820152602860248201527f43616e63656c65642063616d706169676e732063616e6e6f742077697468647260448201526761772066756e647360c01b60648201526084016107c9565b8060030154816005015410156108f25760405162461bcd60e51b815260206004820152600e60248201526d15185c99d95d081b9bdd081b595d60921b60448201526064016107c9565b4780156109b257604051600090339083908381818185875af1925050503d806000811461093b576040519150601f19603f3d011682016040523d82523d6000602084013e610940565b606091505b50509050806109855760405162461bcd60e51b815260206004820152601160248201527015da5d1a191c985dd85b0819985a5b1959607a1b60448201526064016107c9565b60405184907f4a37b25aab49761ecf63117fe82b98d750917451133cf797507bc9fb5b96044a90600090a2505b505050565b6004546001600160a01b031633146109e15760405162461bcd60e51b81526004016107c9906123f5565b600b805460ff1916911515919091179055565b600081815260208190526040902060048101543491904210610a515760405162461bcd60e51b8152602060048201526016602482015275151a194818d85b5c185a59db881a185cc8195b99195960521b60448201526064016107c9565b60008211610ab35760405162461bcd60e51b815260206004820152602960248201527f446f6e6174696f6e20616d6f756e74206d7573742062652067726561746572206044820152687468616e207a65726f60b81b60648201526084016107c9565b600881018054600180820183556000928352602080842090920180546001600160a01b03191633179055600984018054918201815583529082200183905581546040516001600160a01b039091169084908381818185875af1925050503d8060008114610b3c576040519150601f19603f3d011682016040523d82523d6000602084013e610b41565b606091505b5050905080610b845760405162461bcd60e51b815260206004820152600f60248201526e111bdb985d1a5bdb8819985a5b1959608a1b60448201526064016107c9565b82826005016000828254610b98919061245a565b90915550506040805184815260016020820152339186917f492c78b519f1197017a41990501e8c48f80a775c8d084f1370bc3cdbe8a58bd0910160405180910390a350505050565b6001548110610c015760405162461bcd60e51b81526004016107c9906123be565b600081815260208190526040902080546001600160a01b03163314610c775760405162461bcd60e51b815260206004820152602660248201527f4f6e6c7920746865206f776e65722063616e2063616e63656c2074686520636160448201526536b830b4b3b760d11b60648201526084016107c9565b600b81015460ff1615610ccc5760405162461bcd60e51b815260206004820152601c60248201527f43616d706169676e20697320616c72656164792063616e63656c65640000000060448201526064016107c9565b806003015481600501541015610e2d57600b8101805460ff1916600117905560005b6008820154811015610e00576000826008018281548110610d1157610d11612472565b60009182526020822001546009850180546001600160a01b0390921693509084908110610d4057610d40612472565b906000526020600020015490506000811115610deb576000826001600160a01b03168260405160006040518083038185875af1925050503d8060008114610da3576040519150601f19603f3d011682016040523d82523d6000602084013e610da8565b606091505b5050905080610de95760405162461bcd60e51b815260206004820152600d60248201526c1499599d5b990819985a5b1959609a1b60448201526064016107c9565b505b50508080610df890612488565b915050610cee565b5060405182907f1925581c2be6a6ef3cd786635d86c841eb4bbdb051dce32356a44c457d03499890600090a25b5050565b610e39611d37565b6001548210610e5a5760405162461bcd60e51b81526004016107c9906123be565b600082815260208181526040918290208251610180810190935280546001600160a01b031683526001810180549192840191610e9590612389565b80601f0160208091040260200160405190810160405280929190818152602001828054610ec190612389565b8015610f0e5780601f10610ee357610100808354040283529160200191610f0e565b820191906000526020600020905b815481529060010190602001808311610ef157829003601f168201915b50505050508152602001600282018054610f2790612389565b80601f0160208091040260200160405190810160405280929190818152602001828054610f5390612389565b8015610fa05780601f10610f7557610100808354040283529160200191610fa0565b820191906000526020600020905b815481529060010190602001808311610f8357829003601f168201915b5050505050815260200160038201548152602001600482015481526020016005820154815260200160068201548152602001600782018054610fe190612389565b80601f016020809104026020016040519081016040528092919081815260200182805461100d90612389565b801561105a5780601f1061102f5761010080835404028352916020019161105a565b820191906000526020600020905b81548152906001019060200180831161103d57829003601f168201915b50505050508152602001600882018054806020026020016040519081016040528092919081815260200182805480156110bc57602002820191906000526020600020905b81546001600160a01b0316815260019091019060200180831161109e575b505050505081526020016009820180548060200260200160405190810160405280929190818152602001828054801561111457602002820191906000526020600020905b815481526020019060010190808311611100575b50505050508152602001600a820180548060200260200160405190810160405280929190818152602001828054801561116c57602002820191906000526020600020905b815481526020019060010190808311611158575b5050509183525050600b919091015460ff16151560209091015292915050565b6004546001600160a01b031633146111b65760405162461bcd60e51b81526004016107c9906123f5565b600255565b6004546001600160a01b031633146111e55760405162461bcd60e51b81526004016107c9906123f5565b600580546001600160a01b0319166001600160a01b0392909216919091179055565b6060600060015467ffffffffffffffff81111561122657611226612211565b60405190808252806020026020018201604052801561125f57816020015b61124c611d37565b8152602001906001900390816112445790505b50905060005b6001548110156115cd57600081815260208181526040918290208251610180810190935280546001600160a01b0316835260018101805491928401916112aa90612389565b80601f01602080910402602001604051908101604052809291908181526020018280546112d690612389565b80156113235780601f106112f857610100808354040283529160200191611323565b820191906000526020600020905b81548152906001019060200180831161130657829003601f168201915b5050505050815260200160028201805461133c90612389565b80601f016020809104026020016040519081016040528092919081815260200182805461136890612389565b80156113b55780601f1061138a576101008083540402835291602001916113b5565b820191906000526020600020905b81548152906001019060200180831161139857829003601f168201915b50505050508152602001600382015481526020016004820154815260200160058201548152602001600682015481526020016007820180546113f690612389565b80601f016020809104026020016040519081016040528092919081815260200182805461142290612389565b801561146f5780601f106114445761010080835404028352916020019161146f565b820191906000526020600020905b81548152906001019060200180831161145257829003601f168201915b50505050508152602001600882018054806020026020016040519081016040528092919081815260200182805480156114d157602002820191906000526020600020905b81546001600160a01b031681526001909101906020018083116114b3575b505050505081526020016009820180548060200260200160405190810160405280929190818152602001828054801561152957602002820191906000526020600020905b815481526020019060010190808311611515575b50505050508152602001600a820180548060200260200160405190810160405280929190818152602001828054801561158157602002820191906000526020600020905b81548152602001906001019080831161156d575b5050509183525050600b919091015460ff16151560209091015282518390839081106115af576115af612472565b602002602001018190525080806115c590612488565b915050611265565b50919050565b600081116116325760405162461bcd60e51b815260206004820152602660248201527f446f6e6174696f6e20616d6f756e74206d75737420626520677265617465722060448201526507468616e20360d41b60648201526084016107c9565b6000828152602081905260408082206005549151636eb1769f60e11b81523360048201523060248201529092916001600160a01b03169063dd62ed3e9060440160206040518083038186803b15801561168a57600080fd5b505afa15801561169e573d6000803e3d6000fd5b505050506040513d601f19601f820116820180604052508101906116c291906124a3565b9050828110156117145760405162461bcd60e51b815260206004820152601860248201527f416c6c6f77616e6365206e6f742073756666696369656e74000000000000000060448201526064016107c9565b6005546040516323b872dd60e01b8152336004820152306024820152604481018590526000916001600160a01b0316906323b872dd90606401602060405180830381600087803b15801561176757600080fd5b505af115801561177b573d6000803e3d6000fd5b505050506040513d601f19601f8201168201806040525081019061179f91906124bc565b9050806117e65760405162461bcd60e51b8152602060048201526015602482015274151bdad95b881d1c985b9cd9995c8819985a5b1959605a1b60448201526064016107c9565b600883018054600181810183556000928352602080842090920180546001600160a01b03191633179055600a86018054918201815583529082200185905560068401805486929061183890849061245a565b90915550506040805185815260006020820152339187917f492c78b519f1197017a41990501e8c48f80a775c8d084f1370bc3cdbe8a58bd0910160405180910390a35050505050565b4282116118e45760405162461bcd60e51b815260206004820152602b60248201527f54686520646561646c696e652073686f756c642062652061206461746520696e60448201526a207468652066757475726560a81b60648201526084016107c9565b600654604051627eeac760e11b81523360048201526000602482018190529182916001600160a01b039091169062fdd58e9060440160206040518083038186803b15801561193157600080fd5b505afa158015611945573d6000803e3d6000fd5b505050506040513d601f19601f8201168201806040525081019061196991906124a3565b6007546040516331a9108f60e11b815260006004820181905293909211935033916001600160a01b0390911690636352211e9060240160206040518083038186803b1580156119b757600080fd5b505afa1580156119cb573d6000803e3d6000fd5b505050506040513d601f19601f820116820180604052508101906119ef91906124d9565b6004546001600160a01b03918216929092149250163314611b2857600b5460ff1615611ae357818015611a325750600854336000908152600a6020526040902054105b15611a5c57336000908152600a60205260408120805491611a5283612488565b9190505550611b28565b808015611a795750600954336000908152600a6020526040902054105b15611a9957336000908152600a60205260408120805491611a5283612488565b600254341015611ade5760405162461bcd60e51b815260206004820152601060248201526f496e73756666696369656e742066656560801b60448201526064016107c9565b611b28565b600254341015611b285760405162461bcd60e51b815260206004820152601060248201526f496e73756666696369656e742066656560801b60448201526064016107c9565b6001805460009081526020818152604090912080546001600160a01b0319163317815589519092611b609290840191908b0190611da3565b508651611b7690600283019060208a0190611da3565b50600381018690556004810185905560006005820181905560068201558351611ba89060078301906020870190611da3565b506004546001600160a01b03163314801590611bc75750600b5460ff16155b8015611bd1575082155b8015611bdb575081155b8015611be8575060025434115b15611c2a5760025433906108fc90611c0090346124f6565b6040518115909202916000818181858888f19350505050158015611c28573d6000803e3d6000fd5b505b60018054906000611c3a83612488565b9190505550336001600160a01b03167ffc5b9d1c2c1134048e1792e3ae27d4eee04f460d341711c7088000d2ca21862160018054611c7891906124f6565b60405190815260200160405180910390a25050505050505050565b6004546001600160a01b03163314611cbd5760405162461bcd60e51b81526004016107c9906123f5565b600680546001600160a01b039384166001600160a01b03199182161790915560078054929093169116179055565b6004546001600160a01b03163314611d155760405162461bcd60e51b81526004016107c9906123f5565b600480546001600160a01b0319166001600160a01b0392909216919091179055565b60405180610180016040528060006001600160a01b03168152602001606081526020016060815260200160008152602001600081526020016000815260200160008152602001606081526020016060815260200160608152602001606081526020016000151581525090565b828054611daf90612389565b90600052602060002090601f016020900481019282611dd15760008555611e17565b82601f10611dea57805160ff1916838001178555611e17565b82800160010185558215611e17579182015b82811115611e17578251825591602001919060010190611dfc565b50611e23929150611e27565b5090565b5b80821115611e235760008155600101611e28565b600060208284031215611e4e57600080fd5b5035919050565b604080825283519082018190526000906020906060840190828701845b82811015611e975781516001600160a01b031684529284019290840190600101611e72565b5050508381038285015284518082528583019183019060005b81811015611ecc57835183529284019291840191600101611eb0565b5090979650505050505050565b6000815180845260005b81811015611eff57602081850181015186830182015201611ee3565b81811115611f11576000602083870101525b50601f01601f19169290920160200192915050565b6001600160a01b038a16815261012060208201819052600090611f4b8382018c611ed9565b90508281036040840152611f5f818b611ed9565b90508860608401528760808401528660a08401528560c084015282810360e0840152611f8b8186611ed9565b9150508215156101008301529a9950505050505050505050565b6001600160a01b0381168114611fba57600080fd5b50565b600060208284031215611fcf57600080fd5b8135611fda81611fa5565b9392505050565b8015158114611fba57600080fd5b60006020828403121561200157600080fd5b8135611fda81611fe1565b600081518084526020808501945080840160005b838110156120455781516001600160a01b031687529582019590820190600101612020565b509495945050505050565b600081518084526020808501945080840160005b8381101561204557815187529582019590820190600101612064565b80516001600160a01b03168252600061018060208301518160208601526120a982860182611ed9565b915050604083015184820360408601526120c38282611ed9565b915050606083015160608501526080830151608085015260a083015160a085015260c083015160c085015260e083015184820360e08601526121058282611ed9565b9150506101008084015185830382870152612120838261200c565b92505050610120808401518583038287015261213c8382612050565b9250505061014080840151858303828701526121588382612050565b92505050610160808401516121708287018215159052565b5090949350505050565b602081526000611fda6020830184612080565b6000602080830181845280855180835260408601915060408160051b870101925083870160005b828110156121e257603f198886030184526121d0858351612080565b945092850192908501906001016121b4565b5092979650505050505050565b6000806040838503121561220257600080fd5b50508035926020909101359150565b634e487b7160e01b600052604160045260246000fd5b600082601f83011261223857600080fd5b813567ffffffffffffffff8082111561225357612253612211565b604051601f8301601f19908116603f0116810190828211818310171561227b5761227b612211565b8160405283815286602085880101111561229457600080fd5b836020870160208301376000602085830101528094505050505092915050565b600080600080600060a086880312156122cc57600080fd5b853567ffffffffffffffff808211156122e457600080fd5b6122f089838a01612227565b9650602088013591508082111561230657600080fd5b61231289838a01612227565b95506040880135945060608801359350608088013591508082111561233657600080fd5b5061234388828901612227565b9150509295509295909350565b6000806040838503121561236357600080fd5b823561236e81611fa5565b9150602083013561237e81611fa5565b809150509250929050565b600181811c9082168061239d57607f821691505b602082108114156115cd57634e487b7160e01b600052602260045260246000fd5b60208082526017908201527f43616d706169676e20646f6573206e6f74206578697374000000000000000000604082015260600190565b6020808252602f908201527f4f6e6c792074686520636f6e7472616374206f776e65722063616e2063616c6c60408201526e103a3434b990333ab731ba34b7b71760891b606082015260800190565b634e487b7160e01b600052601160045260246000fd5b6000821982111561246d5761246d612444565b500190565b634e487b7160e01b600052603260045260246000fd5b600060001982141561249c5761249c612444565b5060010190565b6000602082840312156124b557600080fd5b5051919050565b6000602082840312156124ce57600080fd5b8151611fda81611fe1565b6000602082840312156124eb57600080fd5b8151611fda81611fa5565b60008282101561250857612508612444565b50039056fea2646970667358221220eb449405804ef336af601f690d5acbe5dfb2ee9d2c4428341f00f29ba6c0c98e64736f6c63430008090033",
  "linkReferences": {},
  "deployedLinkReferences": {}
}